:1000000038090020ED2D00007F1F0000D7200000E0
:1000100000000000000000000000000000000000E0
:10002000000000000000000000000000C72D0000DC
:100030000000000000000000D32D0000F52D00009E
:10004000F72D0000F92D0000512A0000FB2D0000C3
:10005000FD2D0000FF2D0000012E0000032E0000EA
:10006000052E0000072E0000092E00000B2E0000B8
:10007000832900000D2E00000F2E0000112E00001D
:10008000132E0000152E0000172E0000792100000D
:10009000192E0000F0B5002902D000212022815441
:1000A00081784D01C48980214905A34A4E0BA34B99
:1000B0000778002F10D0A24F7D192F683B401E40BB
:1000C0001BD1A04919408389194303799B040B4331
:1000D0004079800518430DE024049B4F7D192F685B
:1000E0003B401E4009D19949194083891943007941
:1000F000800408430243110000E01943296094483A
:1001000001680C430460F0BD92490A68924B1340A9
:10011000000118430860704770B5060001248F4D38
:10012000310028682822624380183430FFF7B2FF7C
:10013000641C042CF4DB70BD30B501000020874A3C
:1001400012680F230F240C401419D4340D0601D566
:10015000247800E0247C002C03D02820444310198C
:1001600002E0194201D11000343030BDF8B504006E
:100170002668206B8168080005D03000884702217E
:10018000C943884219D10021C94308003278520975
:10019000920712D11F22002573780B2B0DD802A6CF
:1001A000F65C7600B74400BF060AC70EC7124AC7FE
:1001B0004E787CA6200000F084F9F2BD200000F00B
:1001C000CFF8F2BD200000F0A3FAF2BD2668337923
:1001D00077793F063F0C3B43F7D1B379F7793F0678
:1001E0003F0C3B43F1D1B378F7783F063F0C3B43DC
:1001F000802BEADA33781342E7D1203420780328C1
:1002000007D1B078F1780906090C08430CD0042016
:1002100008E004286CD1B078F1780906090C08438D
:1002200002D1032000F0BAFDB078F1780906090C7C
:100230000843C0B2FFF768FF002159E0200000F03A
:10024000F9F8F2BD23681E795F793F063F0C3E4303
:1002500071D19E79DF793F063F0C3E43012E6AD172
:100260009E78DF783F063F0C3E4364D11B78DE0961
:1002700061D013425FD12020205C042805D16C4856
:1002800005700023012201462EE0052830D100230D
:1002900001221C34210027E0200000F0A7F9F2BD64
:1002A00023681E795F793F063F0C3E43E77FBE42DD
:1002B00041D29E79DF793F063F0C3E43012E3AD171
:1002C0009E78DF783F063F0C3E4334D11B78DE0931
:1002D00031D01A40012A2ED120342078052807D1A8
:1002E0005348057000230146002000F091FD0100F5
:1002F0000800F2BD21680B794E793606360C33437F
:10030000E67FB34217D28B79CE793606360C33436B
:1003100011D18B78CE783606360C33430BD120348E
:100320002378052B07D109780A40012A03D1002040
:10033000FFF7F2FE0020F2BD00800018FFFFFFC3B0
:100340000009104000F813FC000B104000F8D3FF28
:100350001C081040000810400FF8FFFFE8000020C4
:10036000F0B583B004000020C04307002568A979D8
:10037000EA791206120C114358D100262878C006DB
:10038000C00E02D0022819D04FE0287969790906F9
:10039000090C084349D1A878E9780906090C0843F3
:1003A000012842D12020205C042801D005283CD11E
:1003B000A06AC079800638D5667735E028796979F2
:1003C0000906090C0843C0B2FFF7B6FE00282CD07E
:1003D0008178002929D0AA78EB781B061B0C1A43D8
:1003E00023D120342278052A1FD14901019180218F
:1003F00049057B4A4B0AC02424030078002801D019
:10040000B74800E07748019D4019009000980568C2
:100410007548284025000540A54201D09D4204D1E1
:10042000024011430098016000273800FEBD000023
:10043000000C0020F8B50300002400220021C8436E
:100440001D682E78F7063BD1F60939D0A978EE78E9
:100450003606360C3143C9B2AE78EF783F063F0C12
:100460003E43360A012E04D017D3032E0ED004D3F8
:1004700013E0002924D15C6A0EE0002920D19C6A97
:10048000A278E1780906090C0A4306E09A7F9142B6
:1004900016DADA6A890054582278002A10D0A8792E
:1004A000E9790906090C0843824204D3AA79E8795C
:1004B0000006000C024300232100002000F0A8FCED
:1004C000F2BDF8B504000020C043050021688A7819
:1004D000CB781B061B0C1A4305D18A79CB791B06F6
:1004E0001B0C1A43022A7AD10A78D30977D0874F96
:1004F0000026D006C00E03D002283BD023D36DE0E7
:1005000008794A791206120C104367D12020205C2A
:10051000042801D0052861D13E80607F002801D0E9
:1005200002203880206BC0680125010003D080477D
:1005300000284CD003E0A06AC079400647D538882F
:1005400005433D8043E02020205C042806D1087943
:100550004A791206120C104340D109E005283DD11A
:1005600008794A791206120C1043E17F884235D28D
:100570003E802CE008794A791206120C1043C0B272
:10058000FFF7DAFD002829D020342178042903D18F
:100590008178002922D101E005291FD181784B0102
:1005A00080210903C02212030078002801D04C48A2
:1005B00000E00C48C05813000340934201D08B4226
:1005C00003D18002C10F39800025002D06D1002300
:1005D00002223900002000F01BFC05002800F2BDBB
:1005E000FFFFDFFF000B1040FFFFFFC370B50200ED
:1005F0000021C84313681C795D792D062D0C2C430E
:100600000BD19C79DD792D062D0C2C4305D19C78DE
:10061000DD782D062D0C2C43240A76D11C78E406B7
:1006200073D12021515C0024042923D19D78D978ED
:100630000906090C0D43916A07D09D78DE783606CD
:10064000360C35434E79B5425FD19878DD782D066A
:100650002D0C284310779878DA781206120C104384
:100660004979884250D10120FFF756FD052000F05E
:1006700095FB49E0052948D19978DD782D062D0CA8
:10068000294308D09978DD782D062D0C2943956AE9
:100690006D79A94239D19878D9780906090C0843AF
:1006A00010779878D9780906090C084329D10420D5
:1006B00000F074FB01205049504A1268282343433C
:1006C000D21834322023D35C002B12D193785B01F3
:1006D0001578002D06D0024DEC50D28906E000BFFF
:1006E00000091040464DEC50D28912040B68934328
:1006F0000B60401C0428DFDB0820C04300F0E2FE52
:1007000002E00020FFF708FD002070BD000C002073
:10071000F0B583B004000020C04307002568A97924
:10072000EA791206120C114364D100262878C0061B
:10073000C00E02D0022819D05BE028796979090639
:10074000090C084355D1A878E9780906090C084333
:1007500001284ED12020205C05284AD1A06AC0790A
:10076000800646D501206077002742E02879697924
:100770000906090C0843C0B2FFF7DEFC002838D098
:100780008178002935D0AA78EB781B061B0C1A4318
:100790002FD120342278052A2BD1490101918021C3
:1007A0008903CA08C0231B030478002C10D0154C01
:1007B000019D64190094009C2568134C2C40234033
:1007C000934214D0002C0ED522004C0214430AE0B0
:1007D0000B4C019D64190094009C25680A4C2C4028
:1007E0002340934203D02143009A11600027203018
:1007F00006703800FEBD00001C081040E800002014
:10080000000B104000091040FFFFFFC372B6944870
:1008100001680022D243914201D0491C0160006866
:1008200070478F490868002803D0401E086000D137
:1008300062B6704710B5010000208A78540180220A
:100840001203C0231B030978002901D0854900E069
:10085000854909591C000C409C4201D0944201D1A9
:100860008902C80F10BD80B58178002902D100F03F
:1008700004F801BD00F031F801BDF0B5842109068E
:100880007A4A80231B037A4C0578002D16D005691F
:10089000002D01D101254570724D86686E61066993
:1008A0008789BE4200D93E002068F4300068334397
:1008B0002B612B681A40104301430CE06A4D866897
:1008C0006E612468F4342468808903432B612868AE
:1008D0000240144321432960F0BDFCB504002769A0
:1008E00084252D06614E01202178002921D0002F7A
:1008F00006D0A08900903818401E009900F047FEED
:10090000A178490101915749019A8A1812698023F7
:100910001B061A40C00407431743019808180761D3
:10092000A07840010818A2684261A0784001081828
:100930001FE0A1890091002F05D07818401E00F01B
:1009400026FE00994143A27852010192464A019B3A
:10095000D3181F697F0F7F07C0040843384318610D
:10096000A161A07840011018A1684161A078400100
:10097000101801680E4035430560F3BD30B5010025
:1009800000203B4A12680F230F240C401419D43462
:100990000D0601D5247800E0247C002C03D028200B
:1009A0004443101902E0194201D11000343030BD27
:1009B00010B5C0B2FFF7E2FF040002D0A078002813
:1009C00002D10320C04310BDFFF720FF2020205C90
:1009D00000282FD02078002803D0200000F0AAFBA8
:1009E00002E0200000F0EAFB00202022A054636A0D
:1009F00019001FD060621E49096820318A78052AD3
:100A000013D10978042910D1A17849012278002A4C
:100A100003D0144A5050E08903E0134A5050E08953
:100A20000004B2490A6882430A60226961690520AC
:100A3000C0439847AEE180B5FFF7E8FE00F098FAB2
:100A4000FFF7EFFE01BD80B5FFF7E0FE00F05FFBB2
:100A5000FFF7E7FE01BDCD48006820300078704701
:100A6000FC0B002000091040000B1040FFFFFFC3EB
:100A7000E8000020F1B588B001219D4800F086FE15
:100A800003219C4800F090FF0121C14800F07EFE48
:100A900001F0FAF8F821BD48006801F079F9BB4887
:100AA0000068011D01600899096841620899496858
:100AB000816208998968C1620899097B8177B34886
:100AC000006801001D310722CA7000240C714C71AE
:100AD000089A526902630C70343004708460847028
:100AE0000121C181C4700471447108990968C979F0
:100AF0008181202923D10122A44B1B68F4331A6081
:100B0000046144612023C45444628908C161089887
:100B1000006900780A0042430492491C4143009155
:100B200000210394029499480068826A9078D378EF
:100B30001B061B0C18431018069001230AE04029DD
:100B400078D1924A1268F4321460D9E76D1CC577E7
:100B500010781218069882427AD21078002869D04C
:100B60005078052867D1491C8848006828254D43DE
:100B7000401934309578ED09057084609578C5701A
:100B80002D072D0F6E4635716D462D798570012527
:100B90003679B540C581D578AD07AD0F05711579AA
:100BA00056793606360C3543858104614461202729
:100BB000C4554462089E366976183778002F39D0BC
:100BC0000778002F1AD0039E761C039643715B1C96
:100BD000ED1C6E10B60F7519AD10089E3669765C67
:100BE0007543C561694E36686F463F79F619D4364C
:100BF0003170049DC669AD19049518E0029F7F1CF1
:100C00000297ED1C05956D10AD0F059FED19AD1008
:100C10006D1C36787543C5615C4E36686F463F790A
:100C2000F619E4363170009DC669AD1900958078DB
:100C300004288DDB56E004288AD1D078002887D19B
:100C400052480068C57F9678B54200D17EE749E0FA
:100C50000098133000904D480068826A1279C07F76
:100C600082423FD103293DD1039804283AD2029809
:100C7000042837D2FFF7CAFD5E48016818220A43EC
:100C800002605D4D0120E86009215C4800F08CFEA7
:100C90002868012101432960A42080005849086088
:100CA000584D28680121884328600499009800F075
:100CB00065F9002814D12C61C02040012861286802
:100CC000012101432960802000034F4908604F49FA
:100CD0000860002000F062F8FFF7A3FD002003E0A9
:100CE000FFF79FFD0320C04309B0F0BD1C08104072
:100CF0000023020004001C00F8B50E0015001F00C0
:100D0000C0B2FFF73BFE04000DD0802000038542F7
:100D100009DA2800A18900F037FC8021C900884247
:100D200001DAB00701D003201EE0FFF76FFD2000BD
:100D3000FFF780FD002803D0FFF773FD042013E0C8
:100D40002020205C002803D0FFF76BFD01200BE082
:100D5000A07800280AD05448006820300078052880
:100D600004D0FFF75EFD0820C043F2BDA6602561F8
:100D700000206061A178002902D12070022099E052
:100D800020780028FAD0FFF74CFDCCE7E8000020DF
:100D900004082200FFF745FD002010BD80B50100CA
:100DA0004148026820321078062900D150709070B6
:100DB000117012695268130002D0884200D0904727
:100DC00001BD80B5FFF73FFE802000033749086072
:100DD0000C480168012291430160354800210160FF
:100DE00041600020FFF7DAFF0248016818229143B2
:100DF000016001BD40800C40D0800C4007332000D2
:100E000000400C400800104080E200E000E100E0FB
:100E1000F8B50E0015001F00C0B2FFF7AFFD0400CB
:100E20000DD080200003854209DA2800A18900F056
:100E3000ABFB8021C900884201DAB00701D0032052
:100E40001EE0FFF7E3FC2000FFF7F4FC002803D0CE
:100E5000FFF7E7FC042013E02020205C002803D0EB
:100E6000FFF7DFFC01200BE0A07800280AD00E4835
:100E7000006820300078052804D0FFF7D2FC082055
:100E8000C043F2BDA6602561002060610120A17809
:100E9000002901D120700DE021780029FBD1FFF756
:100EA000C0FCCCE700000000E800002080E100E08A
:100EB00014400C402021605467622000FFF7D3FCEF
:100EC000FFF7AFFC0020F2BD9549202280011043BE
:100ED000086008681040FCD1704701009148006824
:100EE000914A8978490151188968084070478F49AB
:100EF0008078400108188168AC48026880200002B0
:100F000010430840704770B581784C019021C905A5
:100F1000874A0378002B02D0834800190AE0834BEC
:100F20001C1925681540802636062E4326608078D9
:100F30004001181803681A401143016070BD000099
:100F400010B59B48016801229143016001680C22A1
:100F5000914301600120724C2168014321602168A6
:100F60000140FCD100F051FE20680028FCD510BDE6
:100F700090480168B74A0A4002607047F3B581B0F3
:100F80000120B5498861FFF7DBFF8B4C2068002802
:100F900003D0401E206000D162B6322000F017FE60
:100FA00072B620680021C943884201D0401C2060ED
:100FB000AA48006803210143A84801600068042191
:100FC0000143A64801600068A5490140A3480160AB
:100FD000A44800681E21884322210143A1480160E2
:100FE0009E484068A04901408020000208439B4978
:100FF00048600198112801D382B200E010229105C7
:10100000890D9848C16199480068036D112B00D281
:1010100010231C042143934C2162012100910121E2
:1010200080250D430024EDB22E07360F8619D436E5
:101030003678002E03D028256E43861902E02D074E
:1010400015D10600343612D07579009FBD420ED1FD
:10105000D21892B2F369112B00D210231F04560547
:10106000760D3E43824FAD007D192D1F2E60491C29
:101070000429D5DB0099491C00910429CFDBFF200E
:1010800082300199029BC918814201D2824202D367
:101090000320C043FEBD1020FFF716FF102071494A
:1010A00088608868C006FCD46C4804614461C461EF
:1010B000446300201C49420189180C600C61002225
:1010C000D2438A60401C0428F4DB002117484A01FF
:1010D0008018046004610022D2438260491C042904
:1010E000F4DBFFF7A8FC5C4800688021890201431B
:1010F0005948016003205849086148614868C007A1
:1011000001D5012000E00220C8600020FEBD294872
:101110000168554A0A4002211143016070470000EE
:10112000100010401008104000091040000B104043
:10113000FFFFFFC3F8B504004E4DA078400128180A
:10114000422182680A4382604B4F3868014339600C
:10115000A078400128180168484A0A408021090502
:101160001143016040262000FFF7B7FE3040FAD05F
:10117000A0784001281886603868B04338602000A5
:10118000FFF7C1FE02262000FFF7A7FE3040FAD08D
:10119000A0784001281886603868B04338606079CC
:1011A000FFF792FEB004C3490860F1BD1408104077
:1011B000000E104004081040FC0B0020F8B504009D
:1011C0002F48A17849014018816802220A438260B1
:1011D000254FB94D286838408021C9000143296056
:1011E000B648802142680A4342602A683A40430D6B
:1011F00013432B60B24E320000E0521E03680B40D6
:1012000001D1002AF9D141688022914341602869C7
:101210000221014329612000FFF775FE00E0761EE0
:101220002000FFF764FE800701D4002EF7D1144898
:10123000A17849014018022181602869884328610A
:1012400028680740480238432860880499490860A4
:10125000F1BD00007DF8FFFF00400C400008104089
:10126000FFE7FFFF080010407FF8FFFFE8000020C5
:10127000040110400009104010081040FFFFFFC398
:10128000000B1040F0B585B00020029003900125BE
:1012900042200227AA49096828226A438C1834345C
:1012A0002021615C002917D0A1784901E2892378C7
:1012B000002B08D0029B1A4392B20292A14A511805
:1012C0008A68024307E0039B1A4392B203929E4A44
:1012D00051188A683A438A606D1C042DDADB029942
:1012E00089B20191029909041CD07349C968084365
:1012F0007149C860019E0125914800682821694311
:1013000044183434E089064209D08E48A178490156
:10131000401801688D4A0A40B906114301606D1CEE
:10132000042DE9DB0398000425D063480068884950
:1013300001407802084360490860604880214268A3
:101340000A4342605C4A1268814B1340420D1A43C3
:10135000594B1A605A4A00E0521E03680B4001D1F3
:10136000002AF9D1416880229143416052480069C6
:10137000384351490861029800042AD0019E504820
:10138000009001256E4800682821694344183434D0
:10139000E08906420DD02000FFF79FFD400608D5EA
:1013A0006848A1784901401840218160E08986435E
:1013B000B6B26D1C042DE5DB0098401E0090002E97
:1013C00001D00028DDD13C48C068402188433A491B
:1013D000C86001255A4800682821694344183434FC
:1013E0002020205C002802D02000FFF78CFD6D1C1F
:1013F000042DEFDB01980090039EB6B230480190B7
:1014000001254F4800682821694344183434207866
:10141000002815D00098E189084221D02000FFF76C
:101420005CFD384009D04748A178490140188760E1
:101430000098E189884380B20090207800280FD17D
:10144000E08906420CD02000FFF751FD384007D05C
:101450003D48A178490140188760E0898643B6B2CB
:101460006D1C042DCDDB0198401E01900098304387
:1014700002D001980028C3D10224E443029800045A
:1014800007D00D48C06820400B49C8601020FFF706
:101490001BFD039800040BD0074800690440064870
:1014A000046100682A490140780208430249086043
:1014B00005B0F0BD80E200E00408104014001040C8
:1014C000983A0000F8B507000A20C043874201D0CF
:1014D000FFF7D8FE01251F4E002419480168282077
:1014E0006843081834302022825C002A20D0202350
:1014F000C454436A1A001BD0446220318A78052AFA
:1015000012D1097804290FD1817849010278002A83
:1015100003D00C4A5450C18903E00B4A5450C1898E
:10152000090432688A433260026941693800984789
:101530006D1C042DD1DB8020000307490860F1BD3C
:10154000E800002000091040000B1040FFFFFFC31F
:101550007FF8FFFF1C08104080E200E0F4460028FE
:1015600004D4494200F013F8404260474042002949
:1015700005D45FD000F00BF8404249426047494231
:1015800000F005F84942604703460B43E6D40022C9
:10159000030A8B420BD203098B4219D243088B42B8
:1015A0002ED2411A00D20146524110467047FF2206
:1015B00009023FD012068B4205D3121209028B4258
:1015C00001D31212090203098B4219D300E0090A60
:1015D000C3098B4201D3CB01C01A524183098B420C
:1015E00001D38B01C01A524143098B4201D34B01F5
:1015F000C01A524103098B4201D30B01C01A524158
:10160000C3088B4201D3CB00C01A524183088B42DE
:1016100001D38B00C01A524143088B4201D34B00C7
:10162000C01A5241884200D3401A5241CFD20146DB
:101630001046704708B5C046C04608BD30B5030027
:1016400001241D6801208840854314408C402C43B0
:101650001C6030BD3F480068E021C900014015D042
:101660008020400081420FD0400081420AD0C0203B
:101670008000814204D0E020C000814208D009E00F
:10168000354870473548704735487047354870478A
:10169000354870470020704710B534498A6B002ADE
:1016A00000D00122324B8B630B68324BC018DB43F6
:1016B00098428041C00F0B680724A3431843086079
:1016C000120601D00020886310BD70B5040000250B
:1016D00000F000F92849294EB44206D0284EB44201
:1016E00005D0284EB44205D008E00B6804E0086835
:1016F000830801E0086803090320184000280FD080
:10170000022806D002D3032806D019E08020000268
:1017100015E000F085FB12E000F03CFB45080FE00F
:101720001648844202D10868102104E0144884421B
:1017300006D108681421C84002D0FA2080000500B4
:10174000280070BD10494A68D20702D40A680240D6
:10175000FCD1704714800C4040420F00C0CF6A009B
:10176000C0D8A700809FD500406F400104000C4006
:10177000711B0000FFDB0BFF28800C4002001800EB
:1017800003001A0004001C0050800C4070B50200D9
:101790000E000020814C1105090F01290DD00229EE
:1017A00017D0032908D0062915D0072916D00829F3
:1017B00017D00A2918D070BD3834D103CD0E0028B7
:1017C00001D0FFF7BFFF320029002000FFF736FFEE
:1017D00070BD3C34F1E750340120EEE7583410205E
:1017E000EBE75C34A00DE8E77034E6E7B0B5020043
:1017F0000F276B486B490725354CF8239B03134093
:1018000046D080229202934226D05200934219D0B1
:10181000C0221203934234D06A04934241D0802202
:10182000520393421BD0A0225203934221D0821E26
:1018300093421BD0CA1E934217D080229203934238
:1018400032D043E000F0B3FA2168890B0D40691CE7
:10185000FFF79DFEA16805E000F09CFAB0BDFFF720
:1018600034FFA16E0F40F840B0BD0800FFF72DFF18
:10187000B0BD0800FFF729FF216F8907890FC84015
:10188000B0BDA84800F026F807280AD008281DD1C6
:1018900000F08DFA2168890B0D40691CFFF777FE77
:1018A000B0BDFFF7D7FEB0BD9F4800F013F8022887
:1018B00009D0032804D0082808D100F078FAB0BD78
:1018C00080200002B0BD00F0ABFAB0BD0020B0BD7A
:1018D00000800C4030B5010001200322934C090721
:1018E000090F491E062956D801A56D5CAF4400BFFB
:1018F00008364C6CA680840060688D4901408020C9
:101900000001814209D0400081422FD04000814235
:101910003FD04003814202D003E0042030BD0A20C2
:1019200030BD052030BD2168114001291ED002D3F1
:1019300003290CD02DD32168C9030CE021680C25A4
:101940000D40042D12D0082D23D00C2D01D10620DE
:1019500030BD2168C9021FD50B2030BD216830235E
:101960000B40102B02D0202B13D030BD032030BDF4
:10197000072030BD6168E023DB020B4001048B428D
:1019800007D041048B42F1D081048B4204D109205D
:1019900030BD022030BD002030BD000008800C406A
:1019A0000200180003001A007AB582B00200032674
:1019B0000320002100911207120F01920125764C9D
:1019C000521E07D0521E012A2CD9921E63D0D21E5D
:1019D0007DD07FBD6A46127A022A08D0032A18D029
:1019E000042A18D0052A19D00A2A19D07FBD042646
:1019F00000200122012100F09DF800F0D6F9FFF748
:101A00004BFE266000F090FA00F0C4F9FFF744FEA8
:101A10007FBD0120EDE702200646EAE70126E8E760
:101A20000520F9E76846007A012808D0022812D07C
:101A3000032817D006281CD00B2821D07FBD019881
:101A4000022860681ED1554A0240114300980004E4
:101A5000084360607FBD01220121002000F06AF888
:101A60000221ECE701220121012000F063F80121AD
:101A7000E5E7012202214A48FFF7E0FD0321DEE706
:101A80000095DCE7474A02408800104300990905A9
:101A9000014361607FBD6846007A012804D0B7D356
:101AA00003280DD005D37FBD606830229043090123
:101AB000EEE701220121002000F03CF80221F3E7CB
:101AC00001220121012000F035F80121ECE76846F0
:101AD000007A022804D003280DD0092816D07FBD33
:101AE00001220121002000F025F840202060A0689C
:101AF000C0038DD4FBE701220121012000F01AF878
:101B000060202060A068800382D4FBE701220121CD
:101B1000052000F00FF880202060A0684003DED48C
:101B2000FBE7000006000C000733200028800C4073
:101B3000003C00040123062800D9704770B501A4B9
:101B4000245CA7443A3222062A4250000120022493
:101B50000125154E00291BD03060002A19D0F068ED
:101B6000E840184015D1FAE7042008240325F0E7DF
:101B7000102020240525ECE7402080240725E8E7F5
:101B8000180244000925E4E7980244001625E0E71E
:101B9000346000F0C9F970BD24800C40FCFFFEFFEA
:101BA00040800C40F3FFEFFF20800C40002800D164
:101BB000704718B562490A6892B20B686C46238078
:101BC0006B461B889B1A9BB28342F6D311BD38B576
:101BD00002004D4800680021002300F0B7F904001E
:101BE0000D0008E0401EFFF7E1FF2000290047A498
:101BF00030CC24184D41534800218D42F2D8844204
:101C0000F0D2A0B2FFF7D2FF31BDF8B506003E4FCB
:101C1000786800213200002300F098F904000D00DC
:101C200028D1002C26D130000A21FFF7B0FC060095
:101C3000B86800213200002300F088F904000D008C
:101C400018D1002C16D1FC6830000A21FFF79FFC48
:101C5000020000232000002100F078F904000D00AC
:101C600008E0401EFFF7A2FF2000290029A430CC85
:101C700024184D41344800218D42F2D88442F0D2DC
:101C8000A0B2FFF793FFF1BD30B587B003A800BF46
:101C90002FA1102200F074F968460C2100F078F8AA
:101CA0001E48FFF7A3FD0400174DFA20400020183E
:101CB000FA218900FFF76BFC2860194820181949A0
:101CC000FFF765FC6860184820181849FFF75FFCAB
:101CD000A860174820181749FFF759FCE860022050
:101CE0006946887101211448FFF750FD134C1748CD
:101CF000E0616A460021200000F0B7F903A9200046
:101D000000F058F907B030BDD80B0020E0B1FFFF5C
:101D1000FFFFFFFFA015FFFFFFFFFFFF4081040053
:101D200020A1070040420F0050C30000A086010020
:101D3000881300001027000000020400000001408A
:101D400024000140214E000061EA0000FFFF000076
:101D50000100000000000000000000000000000082
:101D6000130030B414001500103902D310393CC0F0
:101D7000FCD2490700D30CC000D504C0890002D3AF
:101D80000280801C002900D5027030BC7047000022
:101D90000022E5E780B500F00AF823490968090741
:101DA000090FC8402149086002BD214870472148F9
:101DB0002149026A214B13408022120193420DD027
:101DC0005200934208D05200934203D052039342F0
:101DD00006D007E048687047D00070470868704731
:101DE000134870470068E021C900014014D0900CEE
:101DF00081420FD0400081420AD0C0208000814241
:101E000004D0100C814209D10D4870470D4870472D
:101E10000D4870470D4870470D48704700207047C7
:101E2000054840687047000004800C40080C002002
:101E300000366E010C800C4060010020003C000464
:101E4000406F4001809FD500C0D8A70040B5640016
:101E5000804F1200F8B53749486E00903648486602
:101E600000220025354803680124234200D00125C3
:101E70001020034201D0284305004020034201D036
:101E8000284305000426334200D03543880D034221
:101E900001D028430500980202D5080D284305000B
:101EA0000D600220264D1D408702BD4213D0C7029F
:101EB000BD4206D00703BD4208D04706BD420FD041
:101EC00013E0CD682D06FCD503250DE0CD68AD05EA
:101ED000FCD54E6009E0CD682D07FCD5486004E0D4
:101EE000CD686D02FCD505254D60234000D108600A
:101EF0000098044000D04A66F1BD10B50F49114A60
:101F000012680A60104A136804241C43146030BF2E
:101F1000002802D0FFF79EFF10BDFFE708684005CC
:101F200001D4FFF737FF10BD064800680349086079
:101F30007047000020800C400E580000F80B002075
:101F4000003C00042C800C4010ED00E030B4434312
:101F500051435D18010C0C00130C5C432D1980B229
:101F6000434392B251430024C918644124040B0432
:101F7000090C09195043C018694130BC7047FEE78D
:101F800070B4103A03D378C9103A78C0FBD2530723
:101F900001D318C918C001D508C908C0D20704D395
:101FA0000B880380891C801C002A01D50B780370E4
:101FB00070BC7047F1B583B008786A461072684605
:101FC000007A002802D10220039A5060002603986C
:101FD00046624878002802D04020019000E0019637
:101FE000487A002802D08020009000E00096887A8D
:101FF000002801D0202200E00022C87A002801D069
:10200000102300E000230879002802D08024A401D6
:1020100000E000244879002802D080256D0500E00A
:102020000025087B002800D0082688780706C87895
:10203000000438438F79BF020743C8790002384350
:10204000097A014301980843009901430A43134365
:102050001C4325432E43039806606846007A0028F7
:1020600002D0012003994860FFBDF1B50026D07968
:10207000002802D080239B0300E00023107A002870
:1020800002D08024640300E00024507A002801D0AC
:10209000102500E00025907A002800D00426107852
:1020A000870650780006384397783F040743D07876
:1020B000000338431779BF020743507900023843C1
:1020C0009279024313431C4325432E430098090190
:1020D00040180663F1BDFEE79F490868002803D059
:1020E000401E086000D162B670479C4900224A60D9
:1020F000D2430A609A4A006B0069002800D0C24AA5
:102100004A60704797498078400108188168BF4845
:1021100002688020000210430840704700213422EA
:1021200081549049904A0A61021D02604A610A681E
:10213000B74B1340F4300068184380221206024364
:102140000A60704730B501000020B24A12680F23C0
:102150000F240C401419D4340D0601D5247800E066
:10216000247C002C03D028204443101902E019429B
:1021700001D11000343030BDF8B572B67648016830
:102180000022D243914201D0491C01600124A2489F
:10219000816800290DD0016889030AD58168214032
:1021A00001D004614168022182680A4001D00161C6
:1021B00041689A494968994A96680E4000D1C7E03B
:1021C000E1050E4209D051604068204000D0032054
:1021D000FEF7E4FD3000924E0640802000060642E5
:1021E00009D08E4948608B48006821300078FEF79E
:1021F000D5FD76007608E00206421CD0874948608B
:102200000920C043FFF75EF9FEF725FC002802D144
:102210000220FEF7C3FDFEF71EFC022805D00328AE
:1022200003D0042801D0052802D10620FEF7B6FD10
:1022300030007C4E06407C4D082006420DD0774988
:10224000486074480068006B0169080003D0A86802
:102250008002800C8847082086430027B0041AD5E6
:102260006C480068F42141586B68B44A1A40230254
:1022700013436B603B4A1268654B13401943842239
:1022800012060A4337490A6054228754FFF72DFF8C
:102290003000AB4E0640F0043ED56868A9490140C5
:1022A000696020205D4908605C4909680140FBD1F4
:1022B00000200021C943A44A4301D2189160401C68
:1022C0000428F8DB0020274A4301D2189160401C03
:1022D0000428F8DB9D48E861292068612C612868A2
:1022E0009B49014029604B480068FFF717FF4948A8
:1022F0000068FFF7FAFE47480068006B00680100BD
:1023000000D080470320FEF749FD0A20C043FFF7B5
:10231000D9F830008F4E0640700304D500F026F83F
:1023200030008D4E0640300312D5A869E96901409E
:102330000E0C264208D0F8B2FFF704FF0500FFF7A5
:10234000E1FE290000F072F87F1C6400042FF0DB2E
:10235000FFF7C2FEF1BD0000FC0B0020140010408E
:1023600000380C80000B104018000860F8B57B485E
:1023700080687A49C968014089B20091002401252A
:10238000714F009880B2284238D080202043C0B2DC
:10239000FFF7D8FE060071480068B1784901791846
:1023A00089680840C00729D5600139180120886074
:1023B0003069002C0FD17169B289824202D2801A31
:1023C000891801E009180020716130611148006826
:1023D00000F025F912E009694903490B411A7161BE
:1023E000401A3061F07800F0D6F9B0784001381822
:1023F0008168890402D5802189018160641C6D0097
:10240000042CBEDBF1BD000008380C80140810401D
:10241000FFFFFFC3E800002000400C401000104008
:10242000FFFF7FFFFFF7FFFF00081040F8B5050032
:102430000C00A278012001212940002A68D1082738
:10244000474E00294DD03060B0682020205C002825
:1024500032D13803054000D030602000FFF752FE33
:102460000500B06800903D421BD03760BD43009826
:102470004000800F032800D102203A4909684242F7
:10248000D0000818143037490968086035480068DA
:1024900000F0C5F820342078032808D0012820D186
:1024A00005E02000FFF72EFE05003D42DDD12D485E
:1024B0000068FFF733FE14E002280CD1206961693F
:1024C000A289824202D2801A891801E009180020EC
:1024D0006161206101E0042803D12248006800F016
:1024E0009EF82020054200D030603D4025D0376066
:1024F000B0684000810F032900D10221194800680B
:102500004A42D10041181431016000F088F8F1BD51
:10251000002912D0144952018A189060A069A2784B
:102520005201891809694903490B401A6061216900
:10253000081A2061E07800F02EF9F1BD7FF8FFFF66
:10254000FFDFFFFF7EF8FFFF0009104001000100E0
:102550000FF8FFFFFFEFFFFFFFFFFBFF100810402A
:10256000080B1040E8000020000B1040E0B502000E
:102570000020C04391784F0180239B03DD08C026D3
:1025800036039D491278002A0CD09C4AD21917684C
:1025900039400E40AE420FD000290AD5080059023A
:1025A000014306E0964AD219176839400E40AE4200
:1025B00002D00B4313600020E0BD0021342281547F
:1025C0008F49904A0A61021D02604A610A688A4B7B
:1025D0001340F430006818438022120602430A6058
:1025E000704770B588490968F4310C688589842181
:1025F0000906814A80231B030678002E06D006694F
:10260000AE4200D92E007D48334301E07C482B4385
:10261000036103681A4014432143016070BDF1B5A2
:1026200005463435794E784800680127002420217A
:10263000695C002908D0022941D06CD3042900D15B
:102640009BE000D28FE0F1BD6C702C61746000984B
:10265000FDF78CFD0021C94388420CD12F70280062
:10266000FFF784FF2C702800FFF780FF66480068A2
:10267000FFF7A3FFF1BD2020285C022801D001282C
:1026800001D1686A70602020285C0228F2D0286995
:1026900000280FD000990A689179D3791B061B0C8A
:1026A0001943884276D2A989FEF771FF002971D1BA
:1026B0006F70F1BD3460687800286BD121E0286923
:1026C000002801D02C702AE07068002815D0002264
:1026D0006969002073689847746000280DD02F70D6
:1026E0002800FFF743FF2C702800FFF73FFF464804
:1026F0000068FFF762FF20354BE043480068FFF7B2
:102700005CFF20202C540023002200210020FEF733
:102710007FFB032024E02869002804D02F702800C4
:10272000FFF75FFFF1BD687801280CD16869306060
:1027300020202C540023002200210020FEF768FBFB
:1027400002206870F1BD002801D168693060202046
:102750002C540023002200210020FEF7CDFA042093
:1027600020352870F1BD26490968002901D4FFF7FA
:1027700024FF706800280AD004E0FFF71EFF70688D
:10278000002804D000223168002073689847202177
:102790006C542C70F1BD38B5002200210F230406C3
:1027A000194C24681D4604D505406419D434247896
:1027B00003E005406419D434247C002C05D0124871
:1027C000006828214C43011903E0184202D10E4849
:1027D000016834312020085C012801D0022809D189
:1027E0002023CA544B6A180004D04A620A69496916
:1027F0000020984731BD0000FFFFFFC300091040D3
:10280000000B104018000860E8000020F00B0020CA
:1028100008B4024B9C4608BC6047C046050800202F
:1028200008B4024B9C4608BC6047C04685010020A6
:1028300008B4024B9C4608BC6047C046A106002075
:1028400008B4024B9C4608BC6047C046C703002042
:1028500008B4024B9C4608BC6047C046B102002049
:1028600008B4024B9C4608BC6047C0465105002096
:10287000464CA00D2060401CE0630620A063444D40
:10288000E90B0020FFF7C4FF286042494248FFF7E8
:10289000BFFF29680004084328600D202062402003
:1028A000A0610125256507273C488761802000023B
:1028B000FA2148438900FEF76AFE38498860022001
:1028C000C861C602364806600F6001E0FFF7A8FF46
:1028D00034480068284006E000F0A8F80028F5D148
:1028E000FFF70BFBF4E7A5652F480660FFF7CCF96F
:1028F000680744302D49C1622D4981642D494160EA
:102900002D4901602D4C4438206000BF40A0FEF7E7
:10291000B1F800F0ABF80025294F2A4E00F0C9F8B5
:1029200000280CD13078002803D0307800F00AF964
:1029300005E06420FFF74BF96435BD42EEDB00F0A3
:10294000AFF8BD4206DBFA21C9000020FFF770FF97
:102950001D4860601FA0FFF773FF0F4842300068FA
:10296000FFF776FF0C48801CC06BFFF771FF17A0C4
:10297000FFF766FF00F0FEF800F002F9FFF770FFC6
:1029800000BF0720124908607047000008800C4013
:10299000DC0000200082E00FB281E00F0000084060
:1029A00000E100E0D060004080E100E08329000009
:1029B00079210000512A0000412A000008ED00E0C2
:1029C000307500000C0C00200400FA050D0A000010
:1029D000180008400D0A0D0A424F4F544C4F414415
:1029E00045522076657273696F6E2045464D3332CD
:1029F000484720626F6F746C6F6164657220763136
:102A00002E302C20436869702049442000000000CB
:102A1000AC2B0000C02B0000842C00000300000041
:102A2000EC000020902C000000000000034800682B
:102A30008021490388428041C00F70470440000054
:102A400072B6002034490860032034490860FEE76C
:102A50003348202101603349CA68052A05DAC06A73
:102A6000CA68531CCB605200885270472E4914200C
:102A700008600520886401204865486688652B4900
:102A80000022D2438A61C863294B4B624A612022EB
:102A90008A60284A04231360022313600860704789
:102AA0002548042101600221016000201A490860C4
:102AB000704738B51B4DE868052801DA002032BDA3
:102AC000FFF7EEFF0024022008E0410069180A88A1
:102AD000891E0988511A89B26418401CE968884225
:102AE000F3DB1648FEF782FEE968891E4843400082
:102AF0002100FEF74CFD04001148FEF777FE40016F
:102B0000610840182100FEF742FD2038C00000F0A7
:102B10001CF8012032BD0000280001402061004067
:102B200018000140C80B0020B860004004000140BC
:102B30000200050000E100E080E100E040810400C7
:102B4000800714000649087070470021054A11608B
:102B50000549886005480865054808607047000019
:102B6000E80B0020206100400440084003030000FF
:102B7000050C00000848008880020849086070477A
:102B8000074808494163012102680A430260064878
:102B90000160490741607047F881E00F040C002094
:102BA00008000C40711B000004200C4012010002C0
:102BB00002000040C41003000000010200010000F8
:102BC00009024300020100C03209040000010202B0
:102BD0000000052400200105240100010424020254
:102BE0000524060001070582034000FF09040100D7
:102BF000020A0000000705810240000007050102EB
:102C000040000000040309043403530069006C0011
:102C1000690063006F006E0020004C0061006200DC
:102C20006F007200610074006F007200690065003F
:102C30007300200049006E0063002E0000000000B9
:102C40004203450046004D0033003200200055008D
:102C50005300420020004300440043002000730062
:102C600065007200690061006C00200070006F0058
:102C70007200740020006400650076006900630043
:102C800065000000042C0000082C0000402C00000F
:102C9000000000002904002039040020000000008A
:102CA00000000000F8B40168421844686108511837
:102CB0008368E40701D54C461B190C3000908A420A
:102CC0002BD01578521C03262E4002D11678F61C04
:102CD000521C28090F2807D110780F30521C03E02E
:102CE0001778521C1F705B1C761EF9D10028E6D0A5
:102CF0001678521CAF0803253D40032D01D11578ED
:102D0000521C2D0275195D1B801CD8D02E786D1CAD
:102D10001E705B1C401ED2D0F8E70098F2BC7047D2
:102D200070B40121002313E00468001D0C4202D09E
:102D30004D466D1E64192360241D121F042AFAD209
:102D40002500960701D52380AD1C0A4000D02B70CA
:102D50000268001D002AE7D170BC704710B5074912
:102D600079441831064C7C44163404E0081D0A6886
:102D7000891888470100A142F8D110BD0800000061
:102D8000240000009DFFFFFFD8020000380900204A
:102D90000000000011FFFFFF82000000A40D0000F2
:102DA000E00000200120C046002801D0FFF7D6FF38
:102DB0000020C046C046FFF75BFD00F000F880B57C
:102DC00000F002F801BDFEE70746384600F002F8C1
:102DD000FBE7FEE72021090326311820ABBEF9E707
:102DE000C046C046C046C046FFF7DCFF004800476B
:102DF000E12D0000FEE7FEE7FEE7FEE7FEE7FEE767
:102E0000FEE7FEE7FEE7FEE7FEE7FEE7FEE7FEE79A
:102E1000FEE7FEE7FEE7FEE7FEE7101700C201004F
:102E200000000800480A0020010102020D0A526554
:102E30006164790D0A1620020D0A4F4B0950010DED
:102E40000A3F1030024661696C0B110C2032424F70
:102E50004F544C4F414445522076657273696F6EF2
:102E60002045464D3332484720626F6F746C6F6166
:102E70006465722076312E612C2043686970204988
:102E8000442038210430034352433A200C100400FC
:102E9000366E0100808210C7B4024B9C4608BC60AD
:102EA00047C046C30D000080F3088880F309888F6F
:102EB00046704770B50024E44324480460FFF7EBF4
:102EC000FF234A01201060002151609163214A9143
:102ED00065214B9964596599655C6603259D661962
:102EE0006099601D4B196059601D4D29609C621CE2
:102EF0004B02255D60260CDE61196019635D60DEA2
:102F000061D9609C611964174BD961996019601689
:102F10004C2165A1600A2525605C6A6407FCD19399
:102F20006C0340FCD1D061882090619163783010AF
:102F300060D1631520106211658020C0010C490822
:102F40006041680068FFF7AFFF70BD80E100E004FA
:102F5000000C4008800C40B860004004200C400089
:102F6000310413000104A00808400440084008EDA3
:102F700000E0DCC3110EECC3F90C10C3CF1B101022
:102F800069B109000010B5030003E00C781C70491A
:102F90001C5B1C1400621E002CF7D110BD5D4A9012
:102FA00070516001205070002070475A48007870BE
:102FB00047F8B50400072500270026A8002100C116
:102FC000400807000F0A2801DA303000E03730519E
:102FD000490978002902D05049885502E0C0B20062
:102FE000F05AF86D1E761C002DE7D54A40101500EA
:102FF0002803D04948875500F066F8F1BD70B54701
:10300000480024444D2934101112D06C70424E44B3
:103010004B862231000120FFF79DFF682E1035FC02
:10302000D00220285600280BD130780AE0401E0735
:10303000D03C490A689206F9D5002801D0486900B9
:10304000E00020C0B270BDF8B506000C00314D00A4
:10305000206870314F324632394640047AFF002CE6
:103060000ED14A100D6A683900701CFFF788FF0105
:1030700020F2BD644C21223271684004F7D0012C4B
:10308000EEDA1012001E100310B51E4C219610032C
:103090000CD01D4908FE100560701D4B01228120D7
:1030A000100149FF6030100305D1FBE71A8A1005B3
:1030B000D206FBD50862108010030500124C201ABE
:1030C00010071BD0280000E0401C013E100DFBD172
:1030D000471B0D4E3A0029003000FFF74C5A2006DE
:1030E00060700B4B3A0031004A32244A12064A10F3
:1030F00005FFF7C7FF6D1C280E1009F9D1F1BD00BF
:1031000000E80B00204004140680841E009D02008D
:1031100020E61007401348052901D10121F2102CA7
:10312000210170704702000220C04311784906490E
:103130000E212900D0704780B50B495278202A090A
:10314000D00ED3222A0BD00BD200230722006A60B4
:1031500002EFFE04E00C1003F1FE002002641409EB
:103160000C0C0020E00000202A4A50E219861806C4
:1031700060082111601169019E10097047F0B501C6
:1031800024254D2E68260E182D224E37692740FB28
:10319000D1401870603460600731000C3141609993
:1031A00018091F0160083A91000F2291431B4A0A37
:1031B000438260C020800319C214091868F0602C93
:1031C0006010203060F04A28040021C9430A0062E0
:1031D000101714001A6822401B1D8024E4000419F3
:1031E000A342F6D38A4208D00A49488210070860F1
:1031F00002220A600A690272101410BD0549084AC9
:103200008A6408600869C007FCD40020886470479D
:10321000B41D0C031E2804031D52042EEA0803CB20
:103220001A63CC1E47F0031C13484C494DFA27FF84
:10323000000FE020002830FFF732FF4648405003DF
:103240002C02A3FE4448580310039FFE2000601880
:10325000103B26FFFFF7BFFE0600FBD0FFF708FF7D
:103260002968622E32D0632E49D0642E1BD0692E7D
:10327000E0D06C2E31D06D2E48D06E2E42D0702E04
:103280001ED0722E45D0742E13D0752E02D0761C0F
:103290001246601001FFF7033A2DB803200400F036
:1032A0007BF8D6E7123005FAFE29680020F60C10EC
:1032B00002F4FE28496F3305EF0E101DEDFE25497F
:1032C0002648E9E73900254800F053F8FFF7C3FD29
:1032D000BCE700212348FFF73CFF219E1007002890
:1032E00002D120000C30AF30200A1C30ACE70020A7
:1032F00000F016F8AAE7623001F9E7154C1005F561
:10330000E714491448F246121446140330F81448DE
:1033100015721298321C03143093E7709E03100349
:103320000E00114D28701001B5FE3141100100F062
:10333000D06A200224FE0835141401ABFE70FC167E
:10334000F0F81A04001004F081E00F0002041242A9
:10335000041C0E40E00F88130000FC41E00F040045
:10336000FA050C580418035401002038DA120C3AFC
:10337000180300FE002807DC2006FFF7D8FDFFF742
:1033800044FFD2200CD3FD31BDF1B582B00127003E
:1033900097029C9E1007844202D04548844214C87C
:1033A000180BFFF701FF434C260088363500437A9F
:1033B0002C0A55FEFFF7DDFD002817D03E4910030B
:1033C00012255220181CD1F1E73D04002C05D1A98B
:1033D0004205D3280AFFF702FFE4E7AC42E2D240FD
:1033E0001C15E1FEA8092418F7E733483449096899
:1033F000890641D4401ED9D0F830031C05E2FD688F
:1034000070687804180412065A140128FE2D3E1A1A
:1034100038A4522C081C04FEBD012802D01C041044
:103420000443FEBDFFF7A276104306D10226FFF744
:10343000C6FDA855761C862EF9D30098A978EA789F
:103440008A18FF2A13D1C211120E12181212120278
:10345000801A81420BD12E0084363100281D00F0E5
:1034600032F83178090272781143884210D0156C15
:10347000100DF2FD00983840882148432518FFF7C9
:10348000755A2402B7D00021181012BDFDB5E72BE4
:103490001D80220098401EC1010298FFF75CFE0CBF
:1034A00024051C00900620E2E7601F380948051E2D
:1034B0001794062C012D3101D40329CC1A1CD416E3
:1034C0000290101412E0030A0002184313785840C7
:1034D00080B203000006000F584008620310000A83
:0C34E000C00C5840521C8A42EAD37047CE
:00000001FF
