:10000000F81F0020B7000000210F0000210F0000A2
:10001000210F0000210F0000210F0000210F000020
:10002000210F0000210F0000210F0000210F000010
:10003000210F0000210F0000210F0000210F000000
:10004000210F0000210F0000210F0000210F0000F0
:10005000210F0000210F0000210F0000210F0000E0
:10006000210F0000210F0000210F0000210F0000D0
:1000700069040000210F0000210F00000D040000A2
:10008000210F0000210F0000210F0000490B00008C
:10009000210F0000210F0000210F0000210F0000A0
:1000A000002310B592089200934200D110BDC458AD
:1000B000CC500433F8E70F490F4A10B5521A0F48D5
:1000C000FFF7EEFF00210E4B0E4A93420FD30023A1
:1000D0000D4A0E4C0E49E058D0500433981888420F
:1000E000F9D90C4B9A6000F0CDF900F087FA02C301
:1000F000EBE7C046000000203C010020380F000064
:1001000000040020C40D0020000C002000000000AE
:10011000FC0C002000ED00E0030001201A0010B5E7
:1001200002400AD130210E4C194007D00A210D4B54
:10013000227019700C4B0431197010BD0622134245
:1001400007D0084B04321A70074B023A1A7021701C
:10015000F3E72078023843425841C0B2EDE7C04689
:100160001408002034010020040800200123044961
:100170000448CA691A4200D170474360F9E7C04693
:1001800000000C4000800840024B18784342584160
:10019000C0B2704714080020002310B59A4200D165
:1001A00010BDCC5CC4540133F8E7FFFF10220B4BA9
:1001B0001A629218D96A1142FCD0094B094ADA63D3
:1001C000012299680A439A600322996B0A439A6351
:1001D0008022054B12021A607047C04600800C4016
:1001E00000000C40711B000000E100E0014B18789A
:1001F0007047C04634010020F7B5D41800901000B5
:1002000080220D00D200944201D88C4207D90A22E4
:10021000274B1A70274B023A1A700020FEBD264A5F
:10022000089980181A00FFF7B7FF0120AC42F5D1FA
:100230001F4F3B78022B07D0052B05D00A233B70BC
:1002400005331C4A1370E8E701241C4EF36923426E
:1002500004D11B4B1A780192002A03D00A233B7069
:100260000433EEE7002D05D106233B70114B1D70C2
:100270002000D3E71C70009B124A9B029B1800933E
:10028000009A114BAD081A60104B1D60B3682343F0
:10029000B360FFF76BFF009B6A4633610223F46093
:1002A000F36001333B701279024B1A70E0E7C046ED
:1002B00034010020040800200004002000000C404D
:1002C00014080020002000000C0800201008002066
:1002D000F7B5334C05002078324F0338042816D880
:1002E00000F020FE0303155358002F4B2F4E1B78B0
:1002F000F0690093012B19D0022B3CD023780A2BF4
:1003000005D0294B1B78002B3DD105332370284B9A
:1003100001201B782B703B686B701A0A1B0CEB706A
:100320002378AA702B7100236B71FEBDC0B2FFF75A
:10033000F3FE0028E2D102231B4A13701D4B1B68F9
:100340000193019A1C4B1A601C4A1368013B13600D
:10035000FFF70CFF019B3361FFF708FFB368009ABA
:100360001343B360009A164B1A60164B1B68B361B7
:100370000823F360C2E7C0B2FFF7CEFE0028BDD16C
:10038000094B1870BAE70423C0E70723237003332F
:100390003B60BCE708232370FA239B00F8E7C046C4
:1003A00034010020300100201408002000000C401F
:1003B000040800200C080020080800201008002075
:1003C0000008002000040020084B094A19780A2977
:1003D00005D10839197000230120137070470A21D4
:1003E00019700F2300201370F8E7C0463401002075
:1003F000040800200222034B01201A700022024B45
:100400001A707047340100200408002010B5104C09
:10041000E36A9B0716D50F4A1368002B15D0013BE2
:1004200013600D4A1368043313602361FFF79EFEC7
:100430000A4A1368591C1160094A9B009B58A36122
:100440000823E3600323636310BD064A1370F9E7D2
:1004500000000C40100800200808002000080020C0
:1004600000040020140800200722044B9A61044B6A
:10047000063A9A617F32DA637047C046000008404E
:100480000060004080220221344B5200FF3110B541
:100490009A6059649A60E23A1A64113A9A629A6AC6
:1004A000D1398A43110010220A439A620122596EFF
:1004B0002B48114359662B490A60016811430160BA
:1004C000A021294889000468214301602749086B5D
:1004D0008021C0B2C9000143D9601A629218D96A5A
:1004E0001142FCD00122596A0A435A628022D2008A
:1004F000D96A1142FCD00F201D4A516881435160D6
:10050000082150680143012051601061916A09017E
:10051000090991628021946A090621439162802130
:100520009163144A116808430321106090680842DF
:10053000FCD1114980201160402280211A623F3A8B
:100540009A650E4B063289019A6199600221D96140
:100550000B49400108601A6010BDC04600800C4085
:10056000D0800C40DC800C4000400C40B081E00F9B
:1005700000600040008008400103000000000840C7
:1005800000E100E0174B184A1B8830B59A4227D08B
:10059000F021164B1648DA6C8A43DA644022D96C93
:1005A0000A43DA64134A116801401160802110681F
:1005B00089020143116002210F4A99651568196685
:1005C000146819661068196680235B0112681D4261
:1005D00006D01C4204D1184202D001201A4200D099
:1005E000002030BD94200000B0700000006000408A
:1005F000FFFFF0FF98600040AC600040474B70B5D3
:100600005A68474CD20707D5002222706270A27048
:10061000E27022712332627101219A68414D0A43CE
:100620009A60414B5A6A0A435A625A6A8A435A622A
:100630006278237812021A43A3781B041A43E378E2
:100640001B061343394A934208D1297000232370B3
:100650006370A370E370237100F090F8FFF792FFCE
:100660000423002803D12379022B02D902232B7003
:10067000ECE72F492F4A0B6893424DD32E4A934201
:100680004AD84B682D4A934246D32D4A934243D8C9
:10069000287072B601222B4B5242DA672A4B2B4A42
:1006A00099602B4B98502B4A98502B4A98502B4AC4
:1006B00098502B4A985020221A602A4B193AD86138
:1006C00098601860586A1042FCD10120264A136DC8
:1006D0000340FCD1254D50621562254D2B60042549
:1006E0001564FC359560EB3D536495629365214A32
:1006F00053609362204A506023706370A370E3706C
:1007000023790133237162B601230A685B42496889
:100710009E4695460847FEE70323A8E700A00C4045
:10072000F81F00201508002000600C40464362744A
:100730000020000000000020002000200020000019
:100740000000010004E100E000ED00E008C003004B
:1007500000400C4018C003001CC8030014C803006C
:1007600010C803000000084000800C40A8080000EA
:10077000D0800C40006000400080084010B500F0C0
:1007800017FB0124FFF712FDFFF730FD082805D104
:100790000124FFF7F9FC002803D0FEE7024B5C6060
:1007A000F2E7014B5C60F4E700800840074B084A21
:1007B0000849094899500949094A99501A5809495C
:1007C0001140802212060A431A50704700400C4024
:1007D00010CB03001800086000CB0300580D002068
:1007E00014CB0300FFFFFF43084B094A98508022B7
:1007F00012031143074A084899501A5807491140F3
:10080000842212060A431A507047C04600400C402A
:1008100014CB030010CB030000CB0300FFFFFF430A
:10082000084B094A9850802212031143074A08488E
:1008300099501A5807491140842212060A431A5047
:100840007047C04600400C4014C9030010C90300A3
:1008500000C90300FFFFFF430D4A0E49136810B59E
:100860000B40802189030B43136013680A4A13402D
:100870000A4A146821431160002B02DA8021C9055D
:100880000B43136000230370FFF790FF10BDC046B9
:10089000000B1040FFFFDFC3FFFFFFC30009104044
:1008A00010B504000800A160A2811100402A00D9FF
:1008B0004021FFF799FF0223237410BD10B50400F7
:1008C000FFF774FF0423002123740800FFF7A8FF3B
:1008D00010BDFFFF70B5C3880400816090B28342F1
:1008E00021D3A0810023A089984203D03F33034045
:1008F0005D426B41A3738B0705D0402803D80D4898
:10090000A060FFF749FCA5893F2D0ED8032323746F
:100910002900A068FFF784FFA3895B1BA381A3685C
:100920005D19A56070BDA381DCE701234025237418
:10093000EEE7C046000D002037B504000822010094
:100940007048FFF729FCA0222388D20093425AD096
:100950002BD82222FF32934200D195E00DD8822B72
:1009600063D01F3A934200D16EE0802B2BD100233D
:1009700065490B704B70022237E0644A934200D104
:100980009BE0634A934200D1A5E0624A93421AD1A8
:10099000A388002B17D16388002B14D180235E49D4
:1009A0005E4A9B038858034359E05D4A93420FD83F
:1009B000013A934255D25B4A934200D192E05A4A9F
:1009C000934200D197E020001030FFF745FF27E069
:1009D00090221201934224D00BD8803A9342F2D154
:1009E000524B49491B780B7001222000FFF772FF20
:1009F00016E04F4A9B18012BE5D8A388042BE2D1BF
:100A000028224C49F1E7F221434889024258A37851
:100A1000494D1B012A40134343502000FFF74EFF6E
:100A200037BD6288414B1A70F7E7A388002BCAD103
:100A30003549394A0B704B70384BD3589B0200D460
:100A400099E701230B7096E7A388002BBBD163883D
:100A5000002BB8D13049314A38488B5803408B506D
:100A6000DBE7374B59680029ADD060881A8882428D
:100A700008D1120A032A03D10A78002ACDD0B4E79C
:100A80001A89FAE70C33EDE7A388002B00D09AE728
:100A9000E188002908D1608800910B000A00FFF767
:100AA000ABFB0028B9D18EE70A00402900D94022CB
:100AB00024492000FFF7F4FEB2E7A388002B00D002
:100AC00081E7114D2800FFF703FC002800D17AE7E9
:100AD0000622290089E7A388002B00D073E7FFF7DF
:100AE00073FCDEE7A388002B00D06CE7FFF77EFBEA
:100AF0000549087078E7A388002B00D063E7FFF76B
:100B000079FCCEE7700D0020780D0020A1030000D5
:100B1000210400000203000000400C4000C9030053
:100B200081060000A105000021060000C00D002084
:100B30004081FFFFCC0000200FF8FFFFFFFFDFFF29
:100B400060000020800D00208B4B8C4A8C48F0B553
:100B500099581F5885B00F4080213C0049010C4036
:100B60001D00002C08D09950F22189025A5885485E
:100B700002405A5005B0F0BD80239B011F4205D0B2
:100B8000AB50FFF713FE804B1B681C747B0321D511
:100B90007E4A7F4B9168EB580B4001210B4219D0E4
:100BA000794B91601C680223227C110099430B0051
:100BB000012954D1A689002E3DD102339A423DD15C
:100BC000A07B002831D0A673FFF7F0FD3100300084
:100BD000FFF726FE3B03CDD56E4A6F49AB586E58E2
:100BE00002921E4080231B021E4202D0AB50012302
:100BF0009E430823370001221F40164200D1A3E084
:100C0000029BEA508023029A1B02AB505E4B1C6889
:100C1000237C042B2AD1002323749F4228D1202334
:100C20001E42A7D0029AAB50A4E70523010023740B
:100C3000FFF7DAFDCEE7402E00D8032323743F2EC2
:100C400000D94026FFF7B2FD3100A068FFF7E8FDAC
:100C5000A3899B1BA381A3689E19A660BAE7042AF7
:100C6000B8D1FFF7A3FD00232374B3E7002F15D0FD
:100C70000823029AAB50494B0222EB585B009B0FB2
:100C8000032B00D11300D21A454BD2009B1822002F
:100C900003CB03C22000FFF74FFEC0E7002BBED0FE
:100CA000022B41D13D4AA189A8587F221040A26859
:100CB000091A89B21018A181A060002905D02374F7
:100CC000402900D94021FFF78FFD2223354FFF3304
:100CD0003A889A42A3D1344BF9881A68BB88002B12
:100CE00006D08A4204D920001030FFF7B5FD96E700
:100CF0008B1A0393402B01D9402303932B4B788805
:100D00000093039BFFF778FA0028ECD0264A039B58
:100D1000116820008C4663441360FA88934200D225
:100D20007DE7FFF7CBFD7AE7052B05D1FFF73EFD09
:100D30001D4B27741F6072E722231A4AFF33128863
:100D400020009A42D0D1ECE7002F00D167E7029A49
:100D5000AB50124BEB585B009B0F032B00D1013BB8
:100D6000094A10680222D21A0D4BD2009B180200C9
:100D700012CB12C28FE7C04600400C4014C00300E3
:100D800018C003000FF8FFFF3801002000091040D1
:100D900010C8030008CB030014C8030010CB0300E5
:100DA000580D0020700D0020540D0020800D0020F3
:100DB0003021474B30B59A6A8A43110010220A430A
:100DC0009A620122596E0A435A668022D2001A6240
:100DD0008022D203D96A1142FCD080225A6280223A
:100DE000D202D96A1142FCD03C233A4842699200AF
:100DF0001A40036904691B069B0F81691A43C06985
:100E0000354B052A61D13A321440012C5DD1B13203
:100E10000A400106090F0A4357D1A42292008021FB
:100E20001A602E4A0903116001210C242C4A996191
:100E30009858884398509858A0439850294A9858F1
:100E40000843985098580842FCD199580029FCDA78
:100E5000F2220321920298583E2401439950042122
:100E60009858214D01439950995820480140995074
:100E70001F495858A04304002020204358501D48C3
:100E80001C582540802424022C4380251C501A4CD9
:100E90001D511A4C1A4D1D511C581A4D2C401C50F6
:100EA0009858194C2040985001205A5802435A50E3
:100EB000C321164A09039950154A16499950292108
:100EC000154A9950154A985030BDE9221201A6E7FB
:100ED00000800C40D0FF0FF000400C4000E100E02B
:100EE00000CE030010C003007F78FFFFFFE7FFFF85
:100EF00008C0030004C8030024C0030028C0030086
:100F0000800040007DF8FFFF0FF8FFFF18C00300CE
:100F10001CC803000100010014C8030010C803002E
:100F200000BEFEE702B4714649084900095C490069
:080F30008E4402BC7047C0466C
:100F380009021B0001010280320904000000FE01C1
:100F4800020209210D1027000401011201100200FC
:100F58000000400912B170010101020001050F1DD6
:100F680000011810050038B60834A909A0478BFD00
:100F7800A0768815B665000102010E030164667546
:100F88002E746F6D752E696D00000403090400004E
:100F9800000100001B0000201200000000020000F9
:100FA800000000201B000000000300005A00002081
:100FB8000000000001030000F40000200000000011
:100FC800020300001001002000000000EE030000F2
:100FD800FE00002000000000000F00002D0000208F
:100FE8001D000000010F00004A0000200E00000054
:100FF80000000000000000000000000028000000C1
:101008000001040001000000000000000001574931
:101018004E55534200000000000000000000000090
:10102800000000000A0378006F00620073001203DA
:101038004D005300460054003100300030007E005F
:10104800200354006F006D007500200042006F00FF
:101058006F0074006C006F0061006400650072002E
:0C1068000100000002000000400D00200C
:04000003000000B742
:00000001FF
