:1000000000200020C300000035120020351200201F
:100010003512002035120020351200203512002044
:100020003512002035120020351200203512002034
:100030003512002035120020351200203512002024
:100040003512002035120020351200203512002014
:100050003512002035120020351200203512002004
:1000600035120020351200203512002035120020F4
:10007000D504002035120020351200206104002034
:10008000351200203512002035120020210E0020EC
:1000900035120020B2707090B06F000000000000B8
:1000A000000000000000000000000000002310B568
:1000B00092089200934200D110BDC458CC50043332
:1000C000F8E70F490F4A10B5521A0F48FFF7EEFF35
:1000D00000210E4B0E4A93420FD300230D4A0E4CC3
:1000E0000E49E058D050043398188842F9D90C4B87
:1000F0009A6000F017F800F01DF802C3EBE7C04665
:100100000800002088130020440100000014002093
:10011000E01D0020001C002000000000FC1C00204E
:1001200000ED00E001B40248844601BC604700BF16
:10013000F104002001B40248844601BC604700BFBE
:040140009D060020F8
:10014400030001201A0010B502400AD130210E4CE0
:10015400194007D00A210D4B227019700C4B043141
:10016400197010BD0622134207D0084B04321A70CE
:10017400074B023A1A702170F3E7207802384342A1
:100184005841C0B2EDE7C046141800208013002087
:1001940004180020012304490448CA691A4200D102
:1001A40070474360F9E7C04600000C4000800840F7
:1001B40070B50125054C0600A3682B43A360FFF727
:1001C400E9FF02232661E560E36070BD00000C4096
:1001D4000C4B10B5DA68501CD8603F280DD80122AA
:1001E40082401F2805D85968114202D0FFF7E0FF6A
:1001F40010BD99680A40D206F8D1022218691A750E
:10020400F4E7C0461C180020024B187843425841BA
:10021400C0B2704714180020002310B59A4200D1D0
:1002240010BDCC5CC4540133F8E7000000220C4B31
:100234001A750C4B10321A621032D96A1142FCD072
:10024400094B0A4ADA63012299680A439A60032235
:10025400996B0A439A638022054B12021A60704715
:100264001C18002000800C4000000C40711B000092
:1002740000E100E0014B18787047C046801300206D
:10028400F8B50500D718100080220C00D200974260
:1002940001D88F4207D90A22604B1A70604B023A88
:1002A40000201A70F8BD5F4E1A0080190699FFF7F6
:1002B400B3FF0120A742F5D1584B1B78022B07D07E
:1002C400052B05D00A23554A1370554B0F22E7E737
:1002D4000120554BDB69034203D1544B1A78002AA1
:1002E40005D00A234D4A13704D4B0E22D8E7002C3B
:1002F40005D10623494A1370494B1C70D2E7187084
:100304004B4B002D11D1310094314A4A09684A4FB0
:10031400914261D102223A7032009A3212781A6004
:1003240001223A751A6892021A601B68A802C01862
:10033400424F434BA40838601C60002D6BD100F081
:10034400B3FB050000F006FB3B689842A3D83A4C87
:100354002378022B0FD16B792A791B0213433200C5
:1003640001339832138004229B3633783548934303
:10037400337000F07BFB6A7C2B7C12021A43AB7C4B
:1003840001261B041A43EB7C1B061343A3606A7B00
:100394002B7B12021A43AB7B1B041A43EB7B002515
:1003A4001B0613436360E56000F06CFBA84222D88F
:1003B40063683868002B02D1A368002B29D001237D
:1003C40020612375FFF704FF0323144A01201370EF
:1003D4000022134B1A7065E732009832126891B20A
:1003E4008C4619498C4503D1120C3870D2B296E769
:1003F4003D70102293E73300AB40DB431F2D04D83C
:100404006268134063600135CEE7A2681340A360BD
:10041400F9E702232375FFF7CBFED5E7801300200D
:10042400041800200014002000000C4014180020C0
:1004340018180020B27070901C1800200C180020AE
:100444001018002094140020B0700000F7B5364C4A
:1004540005002078354F0338042816D800F088FFAB
:100464000303155A5F00324B324E1B78F069009338
:10047400012B19D0022B43D023780A2B05D02C4B07
:100484001B78002B44D1053323702B4B01201B78A0
:100494002B703B686B701A0A1B0CEB702378AA70E4
:1004A4002B7100236B71FEBDC0B2FFF749FE00281B
:1004B400E2D1224B1B7D012B02D1FFF789FEDBE742
:1004C40002231B4A13701E4B1B680193019A1D4B98
:1004D4001A601D4A1368013B1360FFF75BFE019B22
:1004E4003361FFF757FEB368009A1343B360009A71
:1004F400164B1A60164B1B68B3610823F360BBE705
:10050400C0B2FFF71DFE0028B6D1094B1870B3E73F
:100514000423B9E70723237003333B60B5E70823BB
:100524002370FA239B00F8E7801300207C1300203B
:100534001418002000000C40041800201C1800208F
:100544000C180020081800201018002000180020A3
:1005540000140020084B094A19780A2905D10839E2
:10056400197000230120137070470A2119700F239A
:1005740000201370F8E7C046801300200418002000
:100584000222034B01201A700022024B1A7070479A
:10059400801300200418002010B5104CE36A9B0758
:1005A40016D50F4A1368002B15D0013B13600D4A72
:1005B4001368043313602361FFF7ECFD0A4A1368E0
:1005C400591C1160094A9B009B58A3610823E360EE
:1005D4000323636310BD064A1370F9E700000C405F
:1005E4001018002008180020001800200014002013
:1005F400141800200023044A8018984200DA704737
:10060400C0460133F9E7C0461F4E00000722044BE1
:100614009A61044B063A9A617F32DA637047C046A6
:10062400000008400060004080220221344B520048
:10063400FF3110B59A6059649A60E23A1A64113A2B
:100644009A629A6AD1398A43110010220A439A6243
:100654000122596E2B48114359662B490A600168DF
:1006640011430160A02129488900046821430160E5
:100674002749086B8021C0B2C9000143D9601A62BE
:100684009218D96A1142FCD00122596A0A435A626B
:100694008022D200D96A1142FCD00F201D4A516831
:1006A4008143516008215068014301205160106169
:1006B400916A0901090991628021946A090621431A
:1006C400916280219163144A1168084303211060E8
:1006D40090680842FCD11149802011604022802199
:1006E4001A623F3A9A650E4B063289019A61996003
:1006F4000221D9610B49400108601A6010BDC0464F
:1007040000800C40D0800C40DC800C4000400C4049
:10071400B081E00F00600040008008400103000049
:100724000000084000E100E0F7B5427A037A1202C3
:100734001A43837A1B041A43C37A1B061343204AC1
:1007440093423AD0F0221F4C1F49E36C0226934394
:10075400E3644023E26C1D4D1343E3641C4B1420FB
:100764001A680A401A608022196892020A431A60C1
:10077400FFF740FF0F20A665FFF73CFF2F680F200F
:100784002666FFF737FF2B680F2000932666FFF7D6
:1007940031FF2B680F2001932666FFF72BFF802380
:1007A4005B012A681F4208D00099194205D10199BA
:1007B400194202D001201A4200D00020FEBDC046DA
:1007C4002094341800600040FFFFF0FFAC6000404C
:1007D4009860004070B500F067F90122414B424D2A
:1007E40059680024114206D02C60C4798C21D4406D
:1007F4008901A9801440012299683C4E11439960F3
:100804003B4B596A11435962596A91435962052312
:10081400002C12D1374B2968994205D1327000233C
:100824002B602B7100F0A0F9FFF77EFF0423002852
:1008340003D12B79022B02D902233370EFE72E491F
:100844002E4A0B6893424AD32D4A934247D84B68A9
:100854002C4A934243D32C4A934240D2347072B60A
:1008640001222A4B5242DA67294B2A4A99602A4BC1
:100874009C502A4A9C502A4A9C502A4A9C502A4AF4
:100884009C5020221A60294B193ADC619C601C6040
:10089400586A1042FCD10120254A136D0340FCD153
:1008A400244C50621462244C236004241464FC34E9
:1008B4009460EB3C536494629365204A5360936262
:1008C4001F4A50602B602B7901332B7162B60123D0
:1008D4000A685B4249689E4695460847FEE703233B
:1008E400ABE7C04600A00C400000002034180020F4
:1008F40000600C4046436274004000000800002081
:1009040000200020002000000000010004E100E0BD
:1009140000ED00E008C0030000400C4018C00300D4
:100924001CC8030014C8030010C8030000000840DA
:1009340000800C40A8080000D0800C4000600040FB
:100944000080084007B50100042201A8FFF764FCF9
:1009540001980EBD044B0548C018054BC018054B43
:10096400C01A800A800270478813002044010000E6
:10097400FF03000008000020F0B585B00400070064
:10098400FFF7E0FF1326304D304B6843C018F041A9
:100994000190201DFFF7D6FF68432D4B1437C01874
:1009A400F041029020000830FFF7CCFF6843294B48
:1009B400C018F041039020000C30FFF7C3FF020081
:1009C40020001F246A43244B2449D218019BF2417E
:1009D400029E4B434E43E341063CE6419B19039E72
:1009E400053C4E43E64114339E190E234A43DA4133
:1009F4001030B61801950291053C051DAF4210D286
:100A04001522174B874216D8F50B019B6E40734392
:100A14001E00580B464013484643300C704005B046
:100A2400F0BDFFF78FFF0F4B58438619E6410E4880
:100A340046432800E1E7057802995D43AE19D641A3
:100A440001304E43DEE7C04677CAEB8519A19D27E6
:100A540068276689F15C7A0340E34265B179379E81
:100A6400B16756163DAEB2C22FEBD42710B50400C1
:100A7400FFF782FF030A20756375030C000EA3754C
:100A8400E07510BD044B0548C018054BC018054B54
:100A9400C01A800A7047C046881300204401000031
:100AA400FF0300000800002070B5284E30680028BD
:100AB40046D10400264D274B2A689A420AD12800C1
:100AC400FFF75AFF6B69984204D1AB88A34201D95E
:100AD4001C0035608023DB00ED181F4B9D42EAD1DA
:100AE400306800282CD14E231C4C5B422370BE334B
:100AF4006370A370E03BE370194B1A4994331A688E
:100B040090B2120C884200D01022A2710522E27128
:100B14001B88994215D1202323728C3B6372A03326
:100B2400A3721C3BE3720023200023736373A3733B
:100B3400E37323746374A374E374FFF797FF2000D3
:100B440070BD002323726372A372EBE7001D0020C3
:100B540094040000B270709094000100041D002001
:100B640000400000B070000010B500F03BFB012411
:100B7400FFF75CFBFFF77EFB082805D10124FFF794
:100B840043FB002803D0FEE7024B5C60F2E7014B15
:100B94005C60F4E700800840074B084A08490948AC
:100BA40099500949094A99501A5809491140802213
:100BB40012060A431A50704700400C4010CB030041
:100BC4001800086000CB0300741D002014CB030040
:100BD400FFFFFF43084B094A985080221203114338
:100BE400074A084899501A580749114084221206A6
:100BF4000A431A507047C04600400C4014CB03000F
:100C040010CB030000CB0300FFFFFF43084B094A4E
:100C14009850802212031143074A084899501A58E1
:100C240007491140842212060A431A507047C046ED
:100C340000400C4014C9030010C9030000C903009C
:100C4400FFFFFF430449054A0B681A4080239B03B6
:100C540013430B607047C046000B1040FFFFDFC317
:100C64008021084B084A1B6889031340074A10680F
:100C740001431160002B02DA8021C9050B43136084
:100C84007047C046000B1040FFFFFFC3000910402F
:100C940010B50400FFF780FF04230021237008002F
:100CA400FFF7B4FF10BD10B50400FFF7CBFFFFF74B
:100CB400D7FF00232370FFF76FFF10BD10B50400AA
:100CC4000800A160A2811100402A00D94021FFF749
:100CD40081FF0223237410BD70B5C38804008160B2
:100CE40090B2834221D3A0810023A089984203D0EB
:100CF4003F3303405D426B41A3738B0705D040280B
:100D040003D80D48A060FFF787FAA5893F2D0ED8B8
:100D1400032323742900A068FFF778FFA3895B1BD2
:100D2400A381A3685D19A56070BDA381DCE70123DD
:100D340040252374EEE7C0461C1D002037B504008F
:100D4400082201007348FFF767FAA0222388D20023
:100D5400934257D02AD82222FF32934200D192E004
:100D64000CD8822B61D01F3A93426CD0802B2BD1AC
:100D7400002369490B704B70022235E0674A9342A5
:100D840000D198E0664A934200D1A2E0654A9342BA
:100D94001AD1A388002B17D16388002B14D1802388
:100DA4006149624A9B038858034357E0604A93426F
:100DB4000DD8013A934253D25E4A934200D197E050
:100DC4005D4A934200D19CE02000103087E09022DD
:100DD4001201934225D00BD8803A9342F4D1574B59
:100DE4004D491B780B7001222000FFF775FF61E06D
:100DF400534A9B18012BE7D8A388042BE4D128225B
:100E04005049F1E7F221484889024258A3784E4DEF
:100E14001B012A401343435020001030FFF738FFD2
:100E240048E06288454B1A70F6E7A388002BCBD1C3
:100E340039493D4A0B704B703C4BD3589B029BD5B0
:100E440001230B7098E7A388002BBDD16388002B86
:100E5400BAD13549354A3D488B5803408B50DBE7BE
:100E64003B4B59680029AFD060881A88824208D168
:100E7400120A032A03D10A78002ACDD0B4E71A89CA
:100E8400FAE70C33EDE7A388002B9DD1E188002914
:100E940008D1608800910B000A00FFF7F1F90028DF
:100EA400BAD191E70A00402900D9402229492000FB
:100EB400FFF704FF37BDA388002B00D084E7164D4D
:100EC4002800FFF7C3FA002800D17DE70622290095
:100ED4008AE72500A3881035002B03D02800FFF7EC
:100EE400E2FEE7E7FFF736FB002800D094E7F5E7DA
:100EF400A388002B00D067E7FFF7BCF90649087008
:100F040071E72500A3881035002BE7D1FFF738FBE4
:100F1400EAE7C0468C1D0020941D0020A1030000B8
:100F2400210400000203000000400C4000C903003B
:100F340081060000A105000021060000DC1D002040
:100F44004081FFFF181300200FF8FFFFFFFFDFFFB2
:100F5400AC1200209C1D0020944B954A9548F0B596
:100F640099581F5885B00F4080213C0049010C401E
:100F74001D00002C08D09950F22189025A588E483D
:100F840002405A5005B0F0BD80239B011F4205D09A
:100F9400AB50FFF701FE894B1B681C747B0321D502
:100FA400874A884BA958EB580B4001210B4219D0B2
:100FB400824BA9501C680223227C110099430B0028
:100FC40001295ED1A689002E47D102339A4247D126
:100FD400A07B00283BD0A673FFF7DEFD3100300074
:100FE400FFF714FE3B03CDD5774A7849AB586F58C9
:100FF40002921F4080231B021F4202D0AB500123E8
:101004009F4308233E0001221E40174200D1B6E050
:1010140002996A508022029912026A50674A14683F
:10102400002E40D0029AAB50694B0222EB585B0071
:101034009B0F032B00D11300D21A664BD2009B18CE
:10104400220003CB03C22000FFF778FE7FE00523D4
:1010540001002374FFF7BEFDC4E7402E00D803232C
:1010640023743F2E00D94026FFF796FD3100A06877
:10107400FFF7CCFDA3899B1BA381A3689E19A660DF
:10108400B0E7042A04D1FFF787FD00232374A9E7FE
:1010940006232374FFF7D6FDFFF7E2FD0023237434
:1010A400FFF77AFD9EE7237C042B01D126744EE0E2
:1010B400002B4CD0022B51D1454AA689A8587F2237
:1010C4001040A268361AB6B21018A681A060002E8D
:1010D4001AD1FFF761FD0423310023743000FFF7B8
:1010E40095FD22233C4EFF3332889A422FD13B4B4D
:1010F400F1881A68B388002B0ED08A420CD92000DC
:101104001030FFF7D0FD22E023743100402E00D9C7
:101114004021FFF75FFDE4E78B1A0393402B01D9CD
:10112400402303932E4B70880093039BFFF7A8F88A
:101134000028E4D0294A039B11688C466344136059
:10114400F288934203D320001030FFF7A1FD20233F
:101154001F4200D116E7029AAB5013E7052B04D1C6
:10116400FFF71AFD1D4B1E60A0E706232374FFF74B
:1011740069FDFFF775FD2674FFF70EFDE7E7002E06
:10118400E5D0029AAB50124BEB585B009B0F032B3C
:1011940000D1013B094A10680222D21A0D4BD20039
:1011A4009B18020012CB12C24EE7C04600400C400E
:1011B40014C0030018C003000FF8FFFF84130020BD
:1011C40008C9030010C8030008CB030014C80300B7
:1011D40010CB0300741D00208C1D0020701D002006
:1011E4009C1D002030214A4B30B59A6A8A43110075
:1011F40010220A439A620122596E0A435A668022D7
:10120400D2001A628022D203D96A1142FCD0802211
:101214005A628022D202D96A1142FCD03C233D4852
:10122400426992001A40036904691B069B0F816995
:101234001A43C069384B052A66D13A321440012C4E
:1012440062D1B1320A400106090F0A435CD1A422DB
:10125400920080211A60314A0903116001210C2493
:101264002F4A99619858884398509858A0439850A9
:101274002C4A98580843985098580842FCD19958D9
:101284000029FCDAF2220321920298583E240143F9
:10129400995004219858244D014399509958234852
:1012A4000140995022495858A0430400202020436B
:1012B400585020481C582540802424022C43802563
:1012C4001C501D4C1D511D4C1D4D1D511C581D4DB8
:1012D4002C401C5098581C4C2040985001205A58BF
:1012E40002435A50C321194A09039950184A19490B
:1012F40099502921184A9950184A9850184B194A5C
:101304001360194A136030BDE9221201A1E7C046F7
:1013140000800C40D0FF0FF000400C4000E100E0E2
:1013240000CE030010C003007F78FFFFFFE7FFFF3C
:1013340008C0030004C8030024C0030028C003003D
:10134400800040007DF8FFFF0FF8FFFF18C0030086
:101354001CC803000100010014C8030010C80300E6
:1013640000800018000B10400009104000BEFEE78A
:1013740002B4714649084900095C49008E4402BC24
:101384007047C04609021B000101028032090400B3
:101394000000FE01020209210D10270004010112C0
:1013A400011002000000400912B1700101010200A5
:1013B40001050F1D00011810050038B60834A909ED
:1013C400A0478BFDA0768815B665000102010E03C7
:1013D400016466752E746F6D752E696D00000403CB
:1013E4000904000000010000671200201200000040
:1013F400000200004C1200201B000000000300004B
:10140400A612002000000000010300004013002089
:1014140000000000020300005C1300200000000034
:10142400EE0300004A13002000000000000F00003B
:10143400791200201D000000010F00009612002008
:101444000E0000000000000000000000000000008A
:10145400280000000001040001000000000000005A
:10146400000157494E55534200000000000000009F
:1014740000000000000000000A0378006F00620012
:10148400730012034D005300460054003100300035
:1014940030007E00200354006F006D0075002000B2
:1014A40042006F006F0074006C006F006100640004
:1014B4006500720001000000020000005C1D0020B5
:04000003000000C336
:00000001FF
