:1000000000200020C300000079100020791000209B
:10001000791000207910002079100020791000203C
:10002000791000207910002079100020791000202C
:10003000791000207910002079100020791000201C
:10004000791000207910002079100020791000200C
:1000500079100020791000207910002079100020FC
:1000600079100020791000207910002079100020EC
:10007000290500207910002079100020B504002007
:10008000791000207910002079100020250100004F
:1000900079100020B2707090B06F00000000000076
:1000A000000000000000000000000000002310B568
:1000B00092089200934200D110BDC458CC50043332
:1000C000F8E70F490F4A10B5521A0F48FFF7EEFF35
:1000D00000210E4B0E4A93420FD300230D4A0E4CC3
:1000E0000E49E058D050043398188842F9D90C4B87
:1000F0009A6000F09DF900F05BF902C3EBE7C0469F
:1001000008000020C411002060040000001400203A
:10011000E01D0020001C002000000000FC1C00204E
:1001200000ED00E0944B954A9548F0B599581F585A
:1001300085B00F4080213C0049010C401D00002C7F
:1001400008D09950F22189025A588E4802405A50DC
:1001500005B0F0BD80239B011F4205D0AB5000F0DD
:1001600037F9894B1B681C747B0321D5874A884B60
:10017000A958EB580B4001210B4219D0824BA950D2
:100180001C680223227C110099430B0001295ED1D7
:10019000A689002E47D102339A4247D1A07B00287E
:1001A0003BD0A67300F014F93100300000F028F9BC
:1001B0003B03CDD5774A7849AB586F5802921F4020
:1001C00080231B021F4202D0AB5001239F43082310
:1001D0003E0001221E40174200D1B6E002996A504B
:1001E0008022029912026A50674A1468002E40D099
:1001F000029AAB50694B0222EB585B009B0F032B1A
:1002000000D11300D21A664BD2009B18220003CBF8
:1002100003C2200000F004F97FE0052301002374ED
:1002200000F00EF9C4E7402E00D8032323743F2EBC
:1002300000D9402600F0CCF83100A06800F0E0F8CA
:10024000A3899B1BA381A3689E19A660B0E7042A1B
:1002500004D100F0BDF800232374A9E7062323741A
:1002600000F0D6F800F0ACF80023237400F0B0F8EA
:100270009EE7237C042B01D126744EE0002B4CD04A
:10028000022B51D1454AA689A8587F221040A26866
:10029000361AB6B21018A681A060002E1AD100F04E
:1002A00097F8042331002374300000F0A9F82223CA
:1002B0003C4EFF3332889A422FD13B4BF1881A686B
:1002C000B388002B0ED08A420CD92000103000F0E9
:1002D0008FF822E023743100402E00D9402100F035
:1002E000AFF8E4E78B1A0393402B01D94023039323
:1002F0002E4B70880093039B00F072F80028E4D026
:10030000294A039B11688C4663441360F288934228
:1003100003D32000103000F09BF820231F4200D1AF
:1003200016E7029AAB5013E7052B04D100F050F802
:100330001D4B1E60A0E70623237400F069F800F04F
:100340003FF8267400F044F8E7E7002EE5D0029A63
:10035000AB50124BEB585B009B0F032B00D1013BC2
:10036000094A10680222D21A0D4BD2009B180200D3
:1003700012CB12C24EE7C04600400C4014C003002E
:1003800018C003000FF8FFFFC011002008C90300C8
:1003900010C8030008CB030014C8030010CB0300EF
:1003A000741D00208C1D0020701D00209C1D00204D
:1003B00001B40248844601BC604700BFF10600203A
:1003C00001B40248844601BC604700BFD10B002045
:1003D00001B40248844601BC604700BF090B0020FD
:1003E00001B40248844601BC604700BF59010020A7
:1003F00001B40248844601BC604700BF170C0020CE
:1004000001B40248844601BC604700BF7D0B002058
:1004100001B40248844601BC604700BFB50B002010
:1004200001B40248844601BC604700BFAD0C002007
:1004300001B40248844601BC604700BF4505002066
:1004400001B40248844601BC604700BF450B002050
:1004500001B40248844601BC604700BF010C002083
:10046000030001201A0010B502400AD130210E4CC1
:10047000194007D00A210D4B227019700C4B043122
:10048000197010BD0622134207D0084B04321A70AF
:10049000074B023A1A702170F3E720780238434282
:1004A0005841C0B2EDE7C04614180020801100206A
:1004B00004180020012304490448CA691A4200D1E3
:1004C00070474360F9E7C04600000C4000800840D8
:1004D00070B50125054C0600A3682B43A360FFF708
:1004E000E9FF02232661E560E36070BD00000C4077
:1004F000F8B501221F250F4BD8689C685968013058
:100500003F2804D90222D8601A75186907E01F280D
:1005100008D8160086403142F1D0D8608002FFF73B
:10052000D7FFF8BD060017002E40B7403C42E6D08A
:10053000F3E7C0461C180020024B1878434258418C
:10054000C0B2704714180020002310B59A4200D1A1
:1005500010BDCC5CC4540133F8E7000000220C4B02
:100560001A750C4B10321A621032D96A1142FCD043
:10057000094B0A4ADA63012299680A439A60032206
:10058000996B0A439A638022054B12021A607047E6
:100590001C18002000800C4000000C40711B000063
:1005A00000E100E0014B18787047C0468011002040
:1005B000F8B50500D718100080220C00D200974231
:1005C00001D88F4207D90A22714B1A70714B023A37
:1005D00000201A70F8BD704E1A0080190699FFF7B6
:1005E000B3FF0120A742F5D1694B1B78022B07D03E
:1005F000052B05D00A23664A1370664B0F22E7E7E6
:100600000120664BDB69034203D1654B1A78002A4F
:1006100005D00A235E4A13705E4B0E22D8E7002CE9
:1006200005D106235A4A13705A4B1C70D2E7187032
:100630005C4B002D11D1310094315B4A09685B4F4E
:10064000914262D102223A7032009A3212781A60D4
:1006500001223A751A6892021A601B68A802C01833
:10066000534F544BA40838601C60002D00D08BE021
:1006700000F002FC050000F03FFB3B689842A2D866
:100680004A4C2378022B0FD16B792A791B02134332
:10069000320001339832138004229B363378464867
:1006A0009343337000F0B4FB6A7C2B7C12021A4334
:1006B000AB7C01261B041A43EB7C1B061343A3608F
:1006C0006A7B2B7B12021A43AB7B1B041A43EB7B26
:1006D00000251B0613436360E56000F0BBFBA842E6
:1006E00022D82378012B2DD963683868002B46D097
:1006F000012320612375FFF7FBFE0323244A012019
:1007000013700022234B1A7064E73200983212688B
:1007100091B28C4629498C4503D1120C3870D2B263
:1007200095E73D70102292E73300AB40DB431F2D6D
:1007300004D86268134063600135CEE7A2681340B5
:10074000A360F9E700F086FB012605003F2DCBD81A
:10075000280000F069FB002806DB1F2D06D83300B7
:10076000AB406268134363600135EFE72B00320052
:10077000203B9A401300A2681343A360F4E7A368E8
:10078000002BB5D102232375FFF7A2FEB5E7C046C3
:1007900080110020041800200014002000000C40EC
:1007A0001418002018180020B27070901C18002037
:1007B0000C1800201018002094140020B06F0000C6
:1007C000F7B5364C05002078354F0338042816D885
:1007D00000F080FE0303155A5F00324B324E1B7847
:1007E000F0690093012B19D0022B43D023780A2BF8
:1007F00005D02C4B1B78002B44D1053323702B4B99
:1008000001201B782B703B686B701A0A1B0CEB7075
:100810002378AA702B7100236B71FEBDC0B2FFF765
:100820001FFE0028E2D1224B1B7D012B02D1FFF7D6
:100830005FFEDBE702231B4A13701E4B1B6801930C
:10084000019A1D4B1A601D4A1368013B1360FFF7A4
:1008500031FE019B3361FFF72DFEB368009A13430D
:10086000B360009A164B1A60164B1B68B3610823DD
:10087000F360BBE7C0B2FFF7F3FD0028B6D1094B28
:100880001870B3E70423B9E70723237003333B60F1
:10089000B5E708232370FA239B00F8E780110020B6
:1008A0007C1100201418002000000C4004180020C7
:1008B0001C1800200C180020081800201018002018
:1008C0000018002000140020084B094A19780A2952
:1008D00005D10839197000230120137070470A21CF
:1008E00019700F2300201370F8E7C0468011002014
:1008F000041800200222034B01201A700022024B30
:100900001A707047801100200418002010B5104C98
:10091000E36A9B0716D50F4A1368002B15D0013BDD
:1009200013600D4A1368043313602361FFF7C2FD9F
:100930000A4A1368591C1160094A9B009B58A3611D
:100940000823E3600323636310BD064A1370F9E7CD
:1009500000000C401018002008180020001800208B
:1009600000140020141800200023044A8018984224
:1009700000DA7047C0460133F9E7C0461F4E000059
:100980000722044B9A61044B063A9A617F32DA637C
:100990007047C046000008400060004080220221ED
:1009A000344B5200FF3110B59A6059649A60E23AB4
:1009B0001A64113A9A629A6AD1398A431100102254
:1009C0000A439A620122596E2B48114359662B49FA
:1009D0000A60016811430160A02129488900046868
:1009E000214301602749086B8021C0B2C90001433F
:1009F000D9601A629218D96A1142FCD00122596A50
:100A00000A435A628022D200D96A1142FCD00F20D8
:100A10001D4A5168814351600821506801430120FB
:100A200051601061916A0901090991628021946AFB
:100A300009062143916280219163144A1168084399
:100A40000321106090680842FCD111498020116098
:100A5000402280211A623F3A9A650E4B0632890184
:100A60009A6199600221D9610B49400108601A60BE
:100A700010BDC04600800C40D0800C40DC800C4093
:100A800000400C40B081E00F006000400080084052
:100A9000010300000000084000E100E0F7B5427AE1
:100AA000037A12021A43837A1B041A43C37A1B0681
:100AB0001343204A93423AD0F0221F4C1F49E36C63
:100AC00002269343E3644023E26C1D4D1343E36429
:100AD0001C4B14201A680A401A608022196892027E
:100AE0000A431A60FFF740FF0F20A665FFF73CFF9F
:100AF0002F680F202666FFF737FF2B680F20009323
:100B00002666FFF731FF2B680F2001932666FFF75B
:100B10002BFF80235B012A681F4208D000991942ED
:100B200005D10199194202D001201A4200D00020BB
:100B3000FEBDC0462094341800600040FFFFF0FF67
:100B4000AC60004098600040F7B500F095F9019066
:100B500083794C4F9B024C4D00933B60EB884B4E8E
:100B600001337268EB80012300241A420BD08C23DE
:100B70009B012C606B60C820FFF7F6FE019B0134DF
:100B8000DB795B089C430123B2681A43B260404A98
:100B9000404E516A19435162516A99435162002C87
:100BA0000BD00433337000233B4A2B602B71918CA4
:100BB00033785B18938400F0BBF9384A2968914276
:100BC000F0D00198FFF76AFF04230028EAD12B79BF
:100BD000022B01D90223E5E7009B314A1B689342AF
:100BE0004DD3304A93424AD8009B2F4A5B689342C8
:100BF00045D32E4A934242D2347072B601222C4B16
:100C00005242DA673A682B4B9A602B4B2B4A9C5026
:100C10002B4A9C502B4A9C502B4A9C502B4A9C5050
:100C200020221A602A4B193ADC619C601C60596AC8
:100C30001142FCD10121274A136D0B40FCD12648FB
:100C4000516210622548036004201064FC309060FB
:100C5000EB38536490629365214A53609362214A52
:100C600051602B602B7901332B7162B63B681A6897
:100C7000596801235B429E4695460847FEE70323D9
:100C800090E7C046341800200000002000A00C406F
:100C900000600C4038180020841100204643627424
:100CA00008000020002000200020000000000100BB
:100CB00004E100E000ED00E000400C4008C003004B
:100CC00018C003001CC8030014C8030010C80300A8
:100CD0000000084000800C40A8080000D0800C40B4
:100CE000006000400080084007B50100042201A810
:100CF000FFF72AFC01980EBD044B0548C018054BB0
:100D0000C018054BC01A800A80027047C411002029
:100D100060040000FF03000008000020F0B585B06B
:100D200004000700FFF7E0FF1326304D304B684307
:100D3000C018F0410190201DFFF7D6FF68432D4BEE
:100D40001437C018F041029020000830FFF7CCFFA4
:100D50006843294BC018F041039020000C30FFF786
:100D6000C3FF020020001F246A43244B2449D218E9
:100D7000019BF241029E4B434E43E341063CE64158
:100D80009B19039E053C4E43E64114339E190E23E6
:100D90004A43DA411030B61801950291053C051D11
:100DA000AF4210D21522174B874216D8F50B019B84
:100DB0006E4073431E00580B464013484643300CA8
:100DC000704005B0F0BDFFF78FFF0F4B58438619F9
:100DD000E6410E4846432800E1E7057802995D4365
:100DE000AE19D64101304E43DEE7C04677CAEB85E7
:100DF00019A19D2768276689F15C7A0340E3426563
:100E0000B179379EB16756163DAEB2C22FEBD427EB
:100E100010B50400FFF782FF030A20756375030C09
:100E2000000EA375E07510BD80029430084B026877
:100E300010B504009A4206D1FFF770FF6369834240
:100E400004D1002010BD01204042FBE70220FBE757
:100E5000B2707090044B0548C018054BC018054B84
:100E6000C01A800A7047C046C41100206004000008
:100E7000FF0300000800002070B5284E30680028ED
:100E800046D1012504002800FFF7CEFF002809D134
:100E9000AA029432537911791B020B43A34201D960
:100EA0001C0032600135402DEDD1306800282FD173
:100EB0004E231B4C5B422370BE336370A370E03B38
:100EC000E370184B18491A009832126890B2120C4D
:100ED000884200D01022A27105229433E2711B884F
:100EE000124A9A4215D1202323728C3B6372A0339D
:100EF000A3721C3BE3720023200023736373A3736C
:100F0000E37323746374A374E374FFF781FF200019
:100F100070BD002323726372A372EBE7001D0020F3
:100F2000041D002000400000B06F0000B070000001
:100F300010B500F009FA0124FFF710FBFFF732FBB0
:100F4000082805D10124FFF7F7FA002803D0FEE7AF
:100F5000024B5C60F2E7014B5C60F4E70080084004
:100F6000074B084A0849094899500949094A9950C4
:100F70001A5809491140802212060A431A50704734
:100F800000400C4010CB03001800086000CB0300A9
:100F9000741D002014CB0300FFFFFF43084B094AD8
:100FA0009850802212031143074A084899501A5852
:100FB00007491140842212060A431A507047C0465E
:100FC00000400C4014CB030010CB030000CB030007
:100FD000FFFFFF43084B094A985080221203114338
:100FE000074A084899501A580749114084221206A6
:100FF0000A431A507047C04600400C4014C9030011
:1010000010C9030000C90300FFFFFF430449054A5C
:101010000B681A4080239B0313430B607047C04644
:10102000000B1040FFFFDFC38021084B084A1B68FC
:1010300089031340074A106801431160002B02DA4C
:101040008021C9050B4313607047C046000B104058
:10105000FFFFFFC30009104010B50400FFF780FF39
:101060000423002123700800FFF7B4FF10BD10B562
:101070000400FFF7CBFFFFF7D7FF00232370FFF734
:101080006FFF10BD10B504000800A160A28111001F
:10109000402A00D94021FFF781FF0223237410BDAD
:1010A00070B5C3880400816090B2834221D3A081CF
:1010B0000023A089984203D03F3303405D426B4137
:1010C000A3738B0705D0402803D80D48A060FFF715
:1010D0003BFAA5893F2D0ED8032323742900A0686D
:1010E000FFF778FFA3895B1BA381A3685D19A56047
:1010F00070BDA381DCE7012340252374EEE7C046E1
:101100001C1D002037B50400082201007C48FFF7B1
:101110001BFAA0222388D20093425FD02ED822222D
:10112000FF32934200D1B4E00CD8822B69D01F3A31
:10113000934274D0802B0DD1002372490B704B70F9
:1011400002223DE0704A934276D006D8423A93425A
:1011500000D193E0200010300DE06C4A934200D1A2
:10116000B0E06B4A9342F5D12500A3881035002BDF
:1011700000D1B5E02800FFF77AFFA2E0654A93426C
:1011800011D8013A934265D2634A934200D1ADE04F
:10119000624A9342DED12500A3881035002BE9D1A5
:1011A000FFF7A8FB9EE090221201934225D00BD8B6
:1011B000803A9342CED15A4B52491B780B70012290
:1011C0002000FFF76DFF7CE0564A9B18012BC1D829
:1011D000A388042BBED128225349F1E7F2215348BA
:1011E00089024258A378524D1B012A4013434350B1
:1011F00020001030FFF730FF63E06288484B1A7020
:10120000F6E7A388002BA5D13E49484A0B704B70E6
:10121000484BD3589B0293D501230B7090E7A388CA
:10122000002B97D16388002B94D14049414A424812
:101230008B5803408B50DBE7A388002B8AD163884F
:10124000002B00D086E7802338493A4A9B03885810
:101250000343EFE7394B5968002900D17AE76088EA
:101260001A88824208D1120A032A03D10A78002A76
:10127000BED0A5E75A88FAE70833ECE7A388022B2B
:1012800000D067E76388012B00D063E70E222C496A
:1012900096E7A388002B00D05CE7E188002908D1FD
:1012A000608800910B000A00FFF782F900289FD1A7
:1012B00050E70A00402900D9402222492000FFF7C8
:1012C000E1FE37BDA388002B00D043E70D4D280079
:1012D000FFF776FA002800D13CE7062229006FE7E5
:1012E000FFF7F2FA002800D082E743E7A388002B3B
:1012F00000D02FE7FFF756F9024908705FE7C046B4
:101300008C1D0020941D002002030000A10300009A
:101310002104000081060000A10500002106000054
:10132000DC1D00204081FFFF3011002000400C40F8
:101330000FF8FFFF00C90300FFFFDFFFF0100020E0
:10134000DA1000209C1D002030214A4B30B59A6AEB
:101350008A43110010220A439A620122596E0A43FD
:101360005A668022D2001A628022D203D96A1142C0
:10137000FCD080225A628022D202D96A1142FCD06B
:101380003C233D48426992001A40036904691B06E8
:101390009B0F81691A43C069384B052A66D13A32DE
:1013A0001440012C62D1B1320A400106090F0A43F0
:1013B0005CD1A422920080211A60314A0903116095
:1013C00001210C242F4A99619858884398509858C5
:1013D000A04398502C4A985808439850985808426F
:1013E000FCD199580029FCDAF22203219202985884
:1013F0003E240143995004219858244D01439950AB
:10140000995823480140995022495858A043040054
:1014100020202043585020481C5825408024240276
:101420002C4380251C501D4C1D511D4C1D4D1D5124
:101430001C581D4D2C401C5098581C4C2040985056
:1014400001205A5802435A50C321194A090399509E
:10145000184A194999502921184A9950184A985000
:10146000184B194A1360194A136030BDE922120162
:10147000A1E7C04600800C40D0FF0FF000400C40B8
:1014800000E100E000CE030010C003007F78FFFF02
:10149000FFE7FFFF08C0030004C8030024C00300E7
:1014A00028C00300800040007DF8FFFF0FF8FFFF19
:1014B00018C003001CC803000100010014C8030089
:1014C00010C8030000800018000B104000091040F5
:1014D00000BEFEE702B4714649084900095C4900B4
:1014E0008E4402BC7047C04609021B000101028005
:1014F000320904000000FE01020209210D1027003C
:1015000004010112011002000000400912B1700133
:101510000101020001050F1D00011810050038B679
:101520000834A909A0478BFDA0768815B66500018F
:1015300002010E03016466752E746F6D752E696D60
:10154000000004030904000000011200AB10002099
:1015500000021B009010002000030000EA10002091
:101560000103000058110020020300008411002034
:10157000EE03000068110020000F1D00BD100020C8
:10158000000000000000000028000000000104002E
:101590000100000000000000000157494E55534271
:1015A000000000000000000000000000000000003B
:1015B00010034B006F0073006100670069000000BA
:1015C00012034D005300460054003100300030003B
:1015D0007E00000001000000020000003C035400F7
:1015E0006F006D007500200042006F006F007400F6
:1015F0006C006F006100640065007200200028002C
:10160000300029002000760032002E0030002D002E
:0C16100072006300370000005C1D002029
:04000003000000C336
:00000001FF
