:10000000F81F0020B7000000890E0020890E002094
:10001000890E0020890E0020890E0020890E002004
:10002000890E0020890E0020890E0020890E0020F4
:10003000890E0020890E0020890E0020890E0020E4
:10004000890E0020890E0020890E0020890E0020D4
:10005000890E0020890E0020890E0020890E0020C4
:10006000890E0020890E0020890E0020890E0020B4
:1000700071030020890E0020890E00201503002046
:10008000890E0020890E0020890E0020750A0020AC
:10009000890E002000000000B06F0000890E0020D3
:1000A000002310B592089200934200D110BDC458AD
:1000B000CC500433F8E70F490F4A10B5521A0F48D5
:1000C000FFF7EEFF00210E4B0E4A93420FD30023A1
:1000D0000D4A0E4C0E49E058D0500433981888420F
:1000E000F9D90C4B9A6000F01FF800F015F802C324
:1000F000EBE7C04600000020DC0F002038010000C4
:1001000000100020C419002000180020000000008A
:10011000FC18002000ED00E001B40248844601BC58
:10012000604700BF0505002001B40248844601BCB9
:08013000604700BF8D030020B1
:10013800030001201A0010B502400AD130210E4CEC
:10014800194007D00A210D4B227019700C4B04314D
:10015800197010BD0622134207D0084B04321A70DA
:10016800074B023A1A702170F3E7207802384342AD
:100178005841C0B2EDE7C04614140020D40F002047
:1001880004140020012304490448CA691A4200D112
:1001980070474360F9E7C04600000C400080084003
:1001A800024B187843425841C0B2704714140020DB
:1001B800002310B59A4200D110BDCC5CC454013361
:1001C800F8E7000010220B4B1A629218D96A114204
:1001D800FCD0094B094ADA63012299680A439A60FC
:1001E8000322996B0A439A638022054B12021A6014
:1001F8007047C04600800C4000000C40711B000096
:1002080000E100E0014B18787047C046D40F002089
:10021800F7B5D4180190100080220D00D200944246
:1002280001D88C4207D90A222E4B1A702E4B023A5B
:100238001A700020FEBD2D4A089980181A00FFF791
:10024800B7FF0120AC42F5D1264E274F3378022B59
:1002580006D0052B04D00A23337005333B70E8E73A
:100268000120234CE369034203D1224B1A78002A68
:1002780003D00A2333700433F0E7002D03D106239B
:100288003D703370D6E71870019B1B4A002B0DD1C7
:10029800164B1A4998331B6898B21B0CDBB288427C
:1002A80000D00423136013681B031360019B1268BA
:1002B8009B029B180193019A114BAD081A60114BD0
:1002C8001D600125A3682B43A360FFF75BFF019B1B
:1002D800280023610223E560E3605B193370002383
:1002E8003B70A7E7D40F0020041400200010002062
:1002F80000000C401414002018140020B06F0000F7
:100308000C14002010140020F7B5334C0500207899
:10031800324F0338042816D800F050FE0303155353
:1003280058002F4B2F4E1B78F0690093012B19D0E2
:10033800022B3CD023780A2B05D0294B1B78002BA5
:100348003DD105332370284B01201B782B703B6867
:100358006B701A0A1B0CEB702378AA702B710023A0
:100368006B71FEBDC0B2FFF7E3FE0028E2D10223A5
:100378001B4A13701D4B1B680193019A1C4B1A6092
:100388001C4A1368013B1360FFF7FCFE019B3361B5
:10039800FFF7F8FEB368009A1343B360009A164B50
:1003A8001A60164B1B68B3610823F360C2E7C0B23A
:1003B800FFF7BEFE0028BDD1094B1870BAE7042329
:1003C800C0E70723237003333B60BCE7082323708F
:1003D800FA239B00F8E7C046D40F0020D00F002076
:1003E8001414002000000C40041400200C140020F9
:1003F8000814002010140020001400200010002011
:10040800084B094A19780A2905D1083919700023B7
:100418000120137070470A2119700F2300201370F0
:10042800F8E7C046D40F0020041400200222034B32
:1004380001201A700022024B1A707047D40F002056
:100448000414002010B5104CE36A9B0716D50F4A18
:100458001368002B15D0013B13600D4A1368043351
:1004680013602361FFF78EFE0A4A1368591C116056
:10047800094A9B009B58A3610823E3600323636335
:1004880010BD064A1370F9E700000C401014002054
:10049800081400200014002000100020141400206C
:1004A8000722044B9A61044B063A9A617F32DA6359
:1004B8007047C046000008400060004080220221CA
:1004C800344B5200FF3110B59A6059649A60E23A91
:1004D8001A64113A9A629A6AD1398A431100102231
:1004E8000A439A620122596E2B48114359662B49D7
:1004F8000A60016811430160A02129488900046845
:10050800214301602749086B8021C0B2C90001431B
:10051800D9601A629218D96A1142FCD00122596A2C
:100528000A435A628022D200D96A1142FCD00F20B5
:100538001D4A5168814351600821506801430120D8
:1005480051601061916A0901090991628021946AD8
:1005580009062143916280219163144A1168084376
:100568000321106090680842FCD111498020116075
:10057800402280211A623F3A9A650E4B0632890161
:100588009A6199600221D9610B49400108601A609B
:1005980010BDC04600800C40D0800C40DC800C4070
:1005A80000400C40B081E00F00600040008008402F
:1005B800010300000000084000E100E0174B184A62
:1005C8001B8830B59A4227D0F021164B1648DA6CB2
:1005D8008A43DA644022D96C0A43DA64134A116800
:1005E80001401160802110688902014311600221D5
:1005F8000F4A9965156819661468196610681966AE
:1006080080235B0112681D4206D01C4204D11842A7
:1006180002D001201A4200D0002030BD94400000D2
:10062800B06F000000600040FFFFF0FF98600040DE
:10063800AC600040474B70B55A68474CD20707D5A5
:10064800002222706270A270E270227123326271FD
:1006580001219A68414D0A439A60414B5A6A0A43FC
:100668005A625A6A8A435A626278237812021A4393
:10067800A3781B041A43E3781B061343394A9342B1
:1006880008D12970002323706370A370E37023716D
:1006980000F090F8FFF792FF0423002803D1237994
:1006A800022B02D902232B70ECE72F492F4A0B6843
:1006B80093424DD32E4A93424AD84B682D4A9342CF
:1006C80046D32D4A934243D8287072B601222B4B49
:1006D8005242DA672A4B2B4A99602B4B98502B4A87
:1006E80098502B4A98502B4A98502B4A98502022C1
:1006F8001A602A4B193AD86198601860586A1042F3
:10070800FCD10120264A136D0340FCD1254D5062CF
:100718001562254D2B6004251564FC359560EB3D6D
:10072800536495629365214A53609362204A5060EE
:1007380023706370A370E37023790133237162B669
:1007480001230A685B4249689E4695460847FEE7CA
:100758000323A8E700A00C40F81F00201C14002069
:1007680000600C4046436274004000000000002016
:1007780000200020004000000000010004E100E02B
:1007880000ED00E008C0030000400C4018C0030062
:100798001CC8030014C8030010C803000000084068
:1007A80000800C40A8080000D0800C400060004089
:1007B8000080084010B500F03BFB0124FFF702FD64
:1007C800FFF720FD082805D10124FFF7E9FC0028E0
:1007D80003D0FEE7024B5C60F2E7014B5C60F4E794
:1007E80000800840074B084A0849094899500949B8
:1007F800094A99501A5809491140802212060A4399
:100808001A50704700400C4010CB030018000860D5
:1008180000CB03005819002014CB0300FFFFFF434F
:10082800084B094A9850802212031143074A084886
:1008380099501A5807491140842212060A431A503F
:100848007047C04600400C4014CB030010CB030097
:1008580000CB0300FFFFFF43084B094A9850802252
:1008680012031143074A084899501A58074911407A
:10087800842212060A431A507047C04600400C40B2
:1008880014C9030010C9030000C90300FFFFFF4398
:100898000449054A0B681A4080239B0313430B60E5
:1008A8007047C046000B1040FFFFDFC38021084B94
:1008B800084A1B6889031340074A106801431160FE
:1008C800002B02DA8021C9050B4313607047C0462C
:1008D800000B1040FFFFFFC30009104010B50400D3
:1008E800FFF780FF0423002123700800FFF7B4FFFF
:1008F80010BD10B50400FFF7CBFFFFF7D7FF0023AB
:100908002370FFF76FFF10BD10B504000800A16049
:10091800A2811100402A00D94021FFF781FF02235C
:10092800237410BD70B5C3880400816090B28342FF
:1009380021D3A0810023A089984203D03F330340EC
:100948005D426B41A3738B0705D0402803D80D483F
:10095800A060FFF72DFCA5893F2D0ED80323237433
:100968002900A068FFF778FFA3895B1BA381A36810
:100978005D19A56070BDA381DCE7012340252374C0
:10098800EEE7C0460019002037B504000822010030
:100998007348FFF70DFCA0222388D200934257D05A
:1009A8002AD82222FF32934200D192E00CD8822B1F
:1009B80061D01F3A93426CD0802B2BD10023694918
:1009C8000B704B70022235E0674A934200D198E0E1
:1009D800664A934200D1A2E0654A93421AD1A3889D
:1009E800002B17D16388002B14D180236149624AF8
:1009F8009B038858034357E0604A93420DD8013A55
:100A0800934253D25E4A934200D197E05D4A9342A3
:100A180000D19CE02000103087E090221201934220
:100A280025D00BD8803A9342F4D1574B4D491B78C7
:100A38000B7001222000FFF775FF61E0534A9B18F5
:100A4800012BE7D8A388042BE4D128225049F1E7E9
:100A5800F221484889024258A3784E4D1B012A408A
:100A68001343435020001030FFF738FF48E06288F6
:100A7800454B1A70F6E7A388002BCBD139493D4A7C
:100A88000B704B703C4BD3589B029BD501230B70CA
:100A980098E7A388002BBDD16388002BBAD13549CC
:100AA800354A3D488B5803408B50DBE73B4B596830
:100AB8000029AFD060881A88824208D1120A032A16
:100AC80003D10A78002ACDD0B4E71A89FAE70C33A3
:100AD800EDE7A388002B9DD1E188002908D1608823
:100AE80000910B000A00FFF793FB0028BAD191E7A9
:100AF8000A00402900D9402229492000FFF704FFB5
:100B080037BDA388002B00D084E7164D2800FFF7D7
:100B1800FBFB002800D17DE7062229008AE7250093
:100B2800A3881035002B03D02800FFF7E2FEE7E783
:100B3800FFF766FC002800D094E7F5E7A388002BB0
:100B480000D067E7FFF75EFB0649087071E72500EC
:100B5800A3881035002BE7D1FFF768FCEAE7C04609
:100B68007019002078190020A1030000210400005A
:100B78000203000000400C4000C903008106000089
:100B8800A105000021060000C01900204081FFFFD8
:100B98006C0F00200FF8FFFFFFFFDFFF000F0020A2
:100BA80080190020944B954A9548F0B599581F58DC
:100BB80085B00F4080213C0049010C401D00002CED
:100BC80008D09950F22189025A588E4802405A504A
:100BD80005B0F0BD80239B011F4205D0AB50FFF745
:100BE80001FE894B1B681C747B0321D5874A884BFF
:100BF800A958EB580B4001210B4219D0824BA95040
:100C08001C680223227C110099430B0001295ED144
:100C1800A689002E47D102339A4247D1A07B0028EB
:100C28003BD0A673FFF7DEFD31003000FFF714FE5E
:100C38003B03CDD5774A7849AB586F5802921F408D
:100C480080231B021F4202D0AB5001239F4308237D
:100C58003E0001221E40174200D1B6E002996A50B8
:100C68008022029912026A50674A1468002E40D006
:100C7800029AAB50694B0222EB585B009B0F032B87
:100C880000D11300D21A664BD2009B18220003CB66
:100C980003C22000FFF778FE7FE0052301002374DC
:100CA800FFF7BEFDC4E7402E00D8032323743F2E70
:100CB80000D94026FFF796FD3100A068FFF7CCFD6C
:100CC800A3899B1BA381A3689E19A660B0E7042A89
:100CD80004D1FFF787FD00232374A9E706232374B3
:100CE800FFF7D6FDFFF7E2FD00232374FFF77AFD37
:100CF8009EE7237C042B01D126744EE0002B4CD0B8
:100D0800022B51D1454AA689A8587F221040A268D3
:100D1800361AB6B21018A681A060002E1AD1FFF7B5
:100D280061FD0423310023743000FFF795FD222371
:100D38003C4EFF3332889A422FD13B4BF1881A68D8
:100D4800B388002B0ED08A420CD920001030FFF750
:100D5800D0FD22E023743100402E00D94021FFF756
:100D68005FFDE4E78B1A0393402B01D940230393DB
:100D78002E4B70880093039BFFF74AFA0028E4D0B3
:100D8800294A039B11688C4663441360F288934296
:100D980003D320001030FFF7A1FD20231F4200D10C
:100DA80016E7029AAB5013E7052B04D1FFF71AFD9B
:100DB8001D4B1E60A0E706232374FFF769FDFFF7AC
:100DC80075FD2674FFF70EFDE7E7002EE5D0029AC1
:100DD800AB50124BEB585B009B0F032B00D1013B30
:100DE800094A10680222D21A0D4BD2009B18020041
:100DF80012CB12C24EE7C04600400C4014C003009C
:100E080018C003000FF8FFFFD80F002008C903001F
:100E180010C8030008CB030014C8030010CB03005C
:100E2800581900207019002054190020801900203A
:100E380030214A4B30B59A6A8A43110010220A437E
:100E48009A620122596E0A435A668022D2001A62B7
:100E58008022D203D96A1142FCD080225A628022B1
:100E6800D202D96A1142FCD03C233D484269920023
:100E78001A40036904691B069B0F81691A43C069FC
:100E8800384B052A66D13A321440012C62D1B1326E
:100E98000A400106090F0A435CD1A422920080216E
:100EA8001A60314A0903116001210C242F4A996103
:100EB8009858884398509858A04398502C4A985866
:100EC8000843985098580842FCD199580029FCDAF0
:100ED800F2220321920298583E240143995004219A
:100EE8009858244D014399509958234801409950E6
:100EF80022495858A0430400202020435850204835
:100F08001C582540802424022C4380251C501D4C4D
:100F18001D511D4C1D4D1D511C581D4D2C401C5064
:100F280098581C4C2040985001205A5802435A5057
:100F3800C321194A09039950184A19499950292176
:100F4800184A9950184A9850184B194A1360194A68
:100F5800136030BDE9221201A1E7C04600800C40B1
:100F6800D0FF0FF000400C4000E100E000CE03008D
:100F780010C003007F78FFFFFFE7FFFF08C00300F2
:100F880004C8030024C0030028C0030080004000F8
:100F98007DF8FFFF0FF8FFFF18C003001CC803000F
:100FA8000100010014C8030010C8030000800018E5
:100FB800000B10400009104000BEFEE702B4714665
:100FC80049084900095C49008E4402BC7047C04684
:100FD80009021B0001010280320904000000FE0121
:100FE800020209210D10270004010112011002005C
:100FF8000000400912B170010101020001050F1D36
:1010080000011810050038B60834A909A0478BFD5F
:10101800A0768815B665000102010E0301646675A5
:101028002E746F6D752E696D0000040309040000AD
:1010380000010000BB0E00201200000000020000AA
:10104800A00E00201B00000000030000FA0E002084
:101058000000000001030000940F002000000000C1
:1010680002030000B00F002000000000EE030000A3
:101078009E0F002000000000000F0000CD0E002091
:101088001D000000010F0000EA0E00200E00000005
:101098000000000000000000000000002800000020
:1010A8000001040001000000000000000001574991
:1010B8004E555342000000000000000000000000F0
:1010C800000000000A0378006F006200730012033A
:1010D8004D005300460054003100300030007E00BF
:1010E800200354006F006D007500200042006F005F
:1010F8006F0074006C006F0061006400650072008E
:0C1108000100000002000000401900205F
:04000003000000B742
:00000001FF
