:10000000002000204B030000490800204908002080
:10001000490800204908002049080020490800201C
:10002000490800204908002049080020490800200C
:1000300049080020490800204908002049080020FC
:1000400049080020490800204908002049080020EC
:1000500049080020490800204908002049080020DC
:1000600049080020490800204908002049080020CC
:10007000950800204908002049080020A51000200C
:10008000490800204908002049080020AD00000070
:1000900049080020B2707090B06F000000000000AE
:1000A000000000000000000000000000F7B5934BC6
:1000B000934A94499E5859580E408021341C490156
:1000C0000C4007D09950F221890258588E4A0240BC
:1000D0005A5011E180239B011E4206D087498B5064
:1000E00000F070F9894B1B681C74730350D5884A63
:1000F000824B884981489B5841580B4001210B4253
:1001000046D0824B81501C680223227C111C9943EB
:100110000B1E012B2BD1A589002D13D102339A423E
:1001200013D1A17B002907D0A57300F04BF9281C3F
:10013000291C00F087F92BE00523081C237400F02C
:1001400039F925E0402D00D80323237440273F2DA3
:1001500000D82F1C00F036F9391CA06800F072F9A5
:10016000A389DB1BA381A368DF19A76010E0042A21
:1001700004D100F027F90023237409E00623237437
:1001800000F048F900F02EF90023237400F01AF96A
:10019000330300D4B0E0594B5F4F584ADE595F4BF0
:1001A000D35880221E4012020123164202D0534926
:1001B0009E43CA511E4200D180E001224F4B351CA4
:1001C000DA5180221202DA510822504915400DD02E
:1001D000514802241A50524A9A585200920F032A48
:1001E00000D0141C022308681B1B78E00C68227CDA
:1001F000042A57D0002A00D179E0022A4CD148497C
:10020000A58958587F231840A3682D1AADB2181835
:10021000A581A060002D08D100F0D4F80423281C8B
:100220002374291C00F00EF906E02274291E4029CF
:1002300000D9402100F0BEF822223A4BFF32198843
:10024000914254D19988384A002903D0DB8811683B
:1002500099421CD8334B1268D9888D1A402D00D989
:100260004025304B5888314B00932B1C00F0DAF8B6
:1002700000280CD02C4B1A68AD181D60294BDB8868
:100280009D4234D3201C103000F08CF82FE0201C4D
:10029000103000F0B7F82AE0052A05D100F092F8F6
:1002A000214B1D60257422E00623237400F0B2F870
:1002B00000F098F8257400F085F818E008231E4235
:1002C00015D00E4A0221D351154BD2585200920F2D
:1002D000032A00D0111C0D4B186802235B1A144A24
:1002E000DB00D318021C12CB12C200F073F82023DB
:1002F0001E4201D0014AD351F7BDC04600400C4018
:1003000014C0030018C003000FF8FFFF48120020BC
:1003100008C9030010C8030008CB030014C8030079
:1003200010CB0300CC1400207014002030140020E7
:1003300074140020002310B592089200934203D059
:10034000C458CC500433F9E710BD0E490E4A08B525
:10035000521A0E48FFF7EEFF0D4A0E4900238A425B
:1003600001D208C2F9E70C490C4AC95899508021BA
:10037000043349008B42F6D1094B9A6000F03AF8F9
:1003800000F058F808000020541200205404000027
:1003900000140020381D002000000000001800207C
:1003A00000ED00E001B40248844601BC604700BF94
:1003B000F903002001B40248844601BC604700BF35
:1003C0003D03002001B40248844601BC604700BFE1
:1003D0000103002001B40248844601BC604700BF0D
:1003E000A904002001B40248844601BC604700BF54
:1003F000C903002001B40248844601BC604700BF25
:10040000B108002001B40248844601BC604700BF27
:100410000F04002001B40248844601BC604700BFBD
:10042000AD03002001B40248844601BC604700BF10
:10043000510D002001B40248844601BC604700BF52
:10044000610A002001B40248844601BC604700BF35
:040450007503002010
:1004540007B5011C042201A800F06AFE01980EBD34
:10046400044B0548C018054BC018054BC01A800A38
:10047400800270475412002054040000FF0300005F
:1004840008000020031CF0B5143385B001935F4BC2
:10049400041C1B785E4D5F4F012B56D1FFF7D8FF2C
:1004A40068435D4BC618201DFFF7D2FF68435B4BC2
:1004B400C318201C08300293FFF7CAFF6843584B47
:1004C400C318201C0C300393FFF7C2FF1322D6413C
:1004D400544B7E439C461F23DE41029B1921D3418A
:1004E4007B43CB41F618039B0539D3417B43CB4176
:1004F400684314368444F3186646D6417E43053A6D
:10050400201CD64110309E19019B041D9C420AD820
:10051400FFF79EFF444B58430F238619DE4143489F
:100524004643201CF0E7019B984208D20278404BD6
:10053400013053439E191523DE417E43F3E7F00B4C
:1005440046407543680B45405AE0FFF781FF06BA01
:100554006E43314B201DF618FFF77AFF00BA68434B
:100564002E4BC318201C08300293FFF771FF00BA0A
:1005740068432B4BC318201C0C300393FFF768FF10
:100584001322D641274B7E439C461F23DE41029B08
:100594001921D3417B43CB41F618039B0539D34141
:1005A4007B43CB4100BA684314368444F31866464F
:1005B400D6417E43053A201CD64110309E19019B3A
:1005C400041D9C420BD8FFF743FF174B00BA584356
:1005D4000F238619DE4115484643201CEFE7019B93
:1005E400984208D20278124B013053439E191523C6
:1005F400DE417E43F3E7F00B464075436E0B7540D6
:1006040009484543280C684005B0F0BD141100208A
:1006140077CAEB85B179379E19A19D27682766892A
:10062400F15C7A0340E342653DAEB2C22FEBD427BE
:10063400B167561610B5041CFFF724FF030A207592
:100644006375030C000EA375E07510BD10B584022C
:100654009434084B22689A4207D1201CFFF712FFFA
:100664006369984203D1002003E0012000E00220E6
:10067400404210BDB2707090044B0548C018054B41
:10068400C018054BC01A800A7047C0465412002097
:1006940054040000FF0300000800002070B5264D3C
:1006A4002868002847D10126041C301CFFF7CEFF20
:1006B400002808D1B3021A1C98331B889432A34231
:1006C40001D91C1C2A600136402EEED1286800286E
:1006D40031D14E23194C5B422370BE336370A37037
:1006E400E03BE370164B174994331A6890B2120C2E
:1006F400884200D01022A2710522E2711B8899421F
:1007040007D1202323728C3B6372A033A3721C3B5A
:1007140003E0002323726372A372E3720023201C9C
:1007240023736373A373E37323746374A374E37411
:10073400FFF780FF201C70BD00140020041400206B
:1007440000400000B0700000074A0849084BD1502F
:100754000849094BD1500949094B5058034080209E
:10076400000603435350704700400C4018000860D3
:1007740010CB03007414002014CB030000CB03003F
:10078400FFFFFF43084A094BD05080231B03194342
:10079400074BD1500749084B5058034084200006AA
:1007A400034353507047C04600400C4014CB030031
:1007B40010CB030000CB0300FFFFFF43084A094BA3
:1007C400D05080231B031943074BD1500749084BD2
:1007D4005058034084200006034353507047C046DA
:1007E40000400C4014C9030010C9030000C90300F1
:1007F400FFFFFF43044A054B11680B408021890326
:100804000B4313607047C046000B1040FFFFDFC36B
:100814008020084B80031A68074B1340074A11686D
:1008240001431160002B02DA8021C9050B431360D8
:100834007047C046000B1040FFFFFFC30009104083
:1008440010B5041CFFF780FF042300202370011C53
:10085400FFF7B4FF10BD10B5041CFFF7CBFFFFF783
:10086400D7FF00232370FFF76FFF10BD10B5041CE2
:1008740081608281402A00D94022081C111CFFF7A4
:1008840081FF0223237410BD70B5C388041C8160EA
:1008940090B2984201D8A28100E0A3810023A089EC
:1008A4009C46984204D03F3303405E425E41B446C6
:1008B4006346A3738B0705D0402803D80B48A06078
:1008C40000F036FCA5893F2D02D80323237402E0EF
:1008D400012340252374291CA068FFF76FFFA38917
:1008E4005B1BA381A3685D19A56070BD8C140020F7
:1008F40037B5041C08227448211C00F019FCA022FE
:100904002388D200934242D01FD82222FF3293423E
:1009140000D18AE00CD8822B48D01F3A934255D09C
:10092400802B00D0BCE0002368490B704B70C2E000
:10093400674A934200D19AE0664A934200D181E02B
:10094400654A934200D0ABE04CE0644A93420BD832
:10095400013A934254D2624A934200D191E0614AEF
:10096400934200D196E09BE090221201934219D069
:1009740008D8803A934200D092E05B4B53491B78ED
:100984000B7085E0594A9B18012B4AD988E0F22064
:10099400574D80022B58A178564A090113400B4346
:1009A4002B5056E06288504B1A7052E0A388002BFB
:1009B40000D075E045494E4A0B704B704E4BD358EE
:1009C4009B0200D477E001230B7074E0A388002B12
:1009D40066D16388002B63D14549474A474B885801
:1009E40003400BE0A388002B5AD16388002B57D116
:1009F40080203F49404A80038B5803438B5028E0B2
:100A04003F4B596800294BD018886288824206D12E
:100A1400120A032A01D10A7847E05A8845E00833CC
:100A2400EFE7A388042B48D03AE0A388002B37D102
:100A3400E388002B12D160880093191C1A1C00F063
:100A4400ABFB04E0A388002B2AD100F02DFD002885
:100A540026D0201C1030FFF7F3FE34E01A1E402A83
:100A640000D94022201C2749FFF700FF2BE0A38870
:100A7400002B15D1154D281C00F08EFC00281FD129
:100A84000EE0A388002B0BD100F080FB0F49087007
:100A940001220CE0A388002B02D100F01BFDD6E755
:100AA400201C1030FFF7D7FE0DE0002AD1D0201C07
:100AB400FFF7EAFE07E00222F9E728221249F6E7E7
:100AC4000622291CF3E737BDCC140020D4140020DF
:100AD400A1030000210400000203000081060000BD
:100AE400A105000021060000DC1400204081FFFF66
:100AF40000400C400FF8FFFF00C90300FFFFDFFFB9
:100B0400A4110020301400203D1100203021494B55
:100B140030B59A6A8A4320390A439A625A6E0F3969
:100B24000A435A668022D2001A62DA6A5202FCD55B
:100B34008021404A5162DA6A5203FCD50F243E4BAD
:100B440059691A6921401206920F89001D691143DF
:100B540098693A4ADB6905290DD13A310D40012DD6
:100B640009D1011C1B06A143C9B21B0F0B4302D1BF
:100B7400A4239B0001E0E9231B01802101200C2414
:100B840013602F4B090319602E4B9061D158814398
:100B9400D150D158A143D1502B4BD1580143D150FE
:100BA400191C5358DB07FCD45058244B0028FBDA9B
:100BB400F22203203E2492029958014399509958F5
:100BC40001300143995098582049014020489950D8
:100BD4001958A1431E3C21431E4C19501D591E494E
:100BE400294080252D022943802519511B495D5038
:100BF4001B4D1C495D501D591B49294019519C58D6
:100C04001A492140995001211A580A431A50C32005
:100C1400174A000398501748174A98502920174A32
:100C24009850174A9950174B174A1360174A136084
:100C340030BDC04600800C40D0FF0FF000400C4097
:100C440000E100E000CE030010C00300FFE7FFFF57
:100C540008C0030004C803007F78FFFF24C003001A
:100C64008000400028C003007DF8FFFF0FF8FFFF5D
:100C740018C00300010001001CC8030014C80300CD
:100C840010C8030000800018000B10400009104039
:100C940000BEFEE708B5FFF739FF00F053FA00F095
:100CA40075FA082803D00122054B5A60F7E700F0D3
:100CB40037FA002803D10122014B5A60F7E7FEE717
:100CC400008008400023044A82189A4202DBC0468E
:100CD4000133F8E77047C0461F4E00000722044B5B
:100CE4009A61044B063A9A617F32DA637047C046D0
:100CF40000000840006000408022022110B5A024BA
:100D0400314B5200FF319A6059649A60E23A1A6496
:100D1400113A9A629A6AD1398A4320390A439A620B
:100D24005A6E0F390A435A66284A294811600268E4
:100D3400A4000A430260274802682243026080201C
:100D4400254AC000126BD2B20243DA601962DA6A31
:100D54001D499207FBD501204A6A02434A62DA6AB6
:100D64005205FCD50F201D4A01245168814351606E
:100D7400516807380143802051601461916A00066C
:100D8400090109099162916A084380219062916383
:100D9400134A11682143116091688907FCD11149F4
:100DA4000F4A80201160402280211A623F3A9A65DE
:100DB4000D4B063289019A6199600221D9610B4970
:100DC400400108601A6010BD00800C40DC800C40BB
:100DD400D0800C4000400C40B081E00F0060004027
:100DE40000800840010300000000084000E100E02A
:100DF400F7B5427A047A837A120222431B0413431E
:100E04001A1CC37A00241B061343224A93423FD080
:100E1400F022214D0227EB6C14209343EB64EB6C1E
:100E2400B03A1343EB641D4B1D4A19681D4E0A402A
:100E340080211A601A6889020A431A60FFF742FF88
:100E44000F20AF65FFF73EFF802334685B010F205E
:100E54002F661C40FFF736FF33680F2000932F6680
:100E6400FFF730FF33680F2001932F66FFF72AFF47
:100E74003368002C0CD08021009A490100240A42D6
:100E840006D1019C0C4003D00C1C1C4063425C4105
:100E9400201CFEBD2094341800600040986000407F
:100EA400FFFFF0FFAC600040F7B5FFF7F7FB0090E1
:100EB40083794C4F9B024C4C01933B60E3884B4E2F
:100EC40001337268E380012300251A420CD02233D7
:100ED400C820256025716371E580FFF7F3FE009B50
:100EE4000135DB795B089D430123B2681A43B26084
:100EF4003F4A404E516A19435162516A99435162C3
:100F0400002D01D004331FE03B4A216891421BD0DD
:100F14000098FFF76DFF0423002815D12379022BD5
:100F240001D9022310E0019B344A1B6893420AD37F
:100F3400334A934207D8019B324A5B68934202D3F7
:100F4400314A93420BD30323337000232F4A236087
:100F54002371938C3178CB189384FFF79BFE357003
:100F640072B601222A4B5242DA673A68294B9A60D8
:100F7400294B2A4A9D502A4A9D502A4A9D502A4A62
:100F84009D502A4A9D5020221A60294BDD619D60A4
:100F94001D605A6A5207FCD10121264A136D0B4089
:100FA400FAD1254851621062244803600420106479
:100FB400FC309060EB38536490629365204A536030
:100FC4009362204A5160236023795B18237162B6CF
:100FD4003B681A68596801235B429E469546084758
:100FE400FEE7C046001900200000002000A00C40CD
:100FF40000600C400419002046436274080000207D
:101004000020002000200000000001000C1200203D
:1010140004E100E000ED00E000400C4008C00300E3
:1010240018C003001CC8030014C8030010C8030040
:101034000000084000800C40A8080000D0800C404C
:101044000060004000800840031C01201A1C10B5F9
:1010540002401BD130210E4C194007D00A210D4B00
:10106400227019700C4B043119700FE006221342E0
:1010740007D0084B04321A70074B023A1A702170D9
:1010840004E02078023843425841C0B210BDC04643
:10109400341D00204C120020351D0020044BDA6959
:1010A40001231A4202D0034A5360F7E77047C0464F
:1010B40000000C400080084070B50125054C061C5A
:1010C400A3682B43A360FFF7E9FF02232661E560D1
:1010D400E36070BD00000C40104B70B5DA689C688A
:1010E4005D68501C3F2811D81F2803D80122824074
:1010F400154206D11F22012102409140461C0C4298
:1011040002D0D860800205E0301CEBE70222D860F0
:1011140018691A75FFF7D0FF70BDC0461819002072
:10112400024B187843425841C0B27047341D002026
:10113400002310B5934203D0CC5CC4540133F9E7C7
:1011440010BD000000220C4B1A750C4B10321A62B1
:10115400DA6A9206FCD50121094B0A4ADA639A68D5
:101164000A439A609A6B02310A439A638022064BBF
:1011740012021A607047C0461819002000800C4003
:1011840000000C40711B000000E100E0014B1878E6
:101194007047C0464C120020F8B5041CD618101C29
:1011A40080220F1CD200964201D88E4204D90A2212
:1011B4006E4B1A70023A12E06D4D069928181A1CEB
:1011C400FFF7B6FF0120BE4200D0CEE0674B1A788D
:1011D400022A08D0052A06D00A221A700532654B65
:1011E40000201A70C1E00120634BDB69034203D184
:1011F400624B1A78002A04D00A235C4A13700E2228
:10120400EDE7002E05D10623584A1370594B1E7082
:10121400ABE018705A4B002C20D12A1C943217686A
:10122400584A5949974205D102220A702A1C9A3217
:1012340012780DE02A1C9832126897B2BC46534FBC
:10124400BC4503D112020870120E01E010220C708A
:101254001A6001220A751A6892021A601B68A002B9
:10126400C0184B4F4B4BB60838601E60002C73D12E
:10127400FFF714FA3C68061CFFF7F2F8844296D391
:10128400414C2378022B11D1737932791B02134319
:101294002A1C0133983213802A1C0421281C9B32F7
:1012A400137894308B431370FFF7C4F9727C307C4D
:1012B400B37C120202431B0413431A1CF37C002563
:1012C4001B061343A360727B307BB37B1202024381
:1012D4001B0413431A1CF37BE5601B061343636072
:1012E400FFF7CAF985420CD20123AB401F2D03D866
:1012F40062689A43626002E0A2689A43A260013580
:10130400EEE72378012B03D96368002B17D019E08B
:10131400FFF7B2F9051C3F2DF6D8281CFFF796F904
:1013240000280AD00123AB401F2D03D86268134361
:10133400636002E0A2681343A3600135EBE7A3688E
:10134400002B06D0012323753B682361FFF7C4FEFD
:1013540004E0022338682375FFF7AEFE0323034A33
:10136400012013700022034B1A70F8BD4C120020A8
:1013740030190020351D002000000C40341D0020D1
:1013840014190020B270709018190020B070000079
:1013940010190020301D0020F0B5384C051C2078B1
:1013A40085B00338364F042857D800F0CDF803032E
:1013B400564D5100334B344E1A78F0690192029322
:1013C400012A02D0022A2CD032E0C0B2FFF73CFE40
:1013D40000282DD12D4B1B7D012B02D1FFF77CFE64
:1013E40026E00223029A1370294B1B680393039A85
:1013F400284B1A60284A1368013B1360FFF74EFE1E
:10140400039B3361FFF74AFEB368019A1343B36049
:10141400019A224B1A60224B1B68B3610823F360C4
:1014240006E0C0B2FFF710FE002801D1029B18703D
:1014340023780A2B11D0029B1B78002B01D1053392
:1014440000E00423237008E007232370033303E040
:1014540008232370FA239B003B60124B01201B7866
:101464002B703B681A0A6B701B0CEB702378AA7004
:101474002B7100236B7105B0F0BDC0464C120020E7
:1014840050120020341D002000000C4018190020C8
:101494001019002008190020301D00200C1900200C
:1014A40030190020351D0020084B094A19780A29F3
:1014B40005D10839197000230120137004E00A21B2
:1014C40019700F23002013707047C0464C1200207F
:1014D400351D00200222034B01201A700022024B0A
:1014E4001A7070474C120020351D002010B5104CA6
:1014F400E36A9B0719D50F4A1368002B13D0013BED
:1015040013600D4A1368043313602361FFF7C6FDAB
:101514000A4A1368591C1160094A9B009B58A3612D
:101524000823E36001E0074A13700323636310BDDB
:1015340000000C40301D0020081900200C19002068
:1015440030190020341D002002B4714649084900B6
:10155400095C49008E4402BC7047C046010000008B
:101564000403090412034D005300460054003100E3
:10157400300030007E000E03016466752E746F6DBA
:10158400752E696D002800000000010400010000B0
:101594000000000000000157494E5553420000006E
:1015A4000000000000000000000000000012011014
:1015B40002000000400912B170010101020001099A
:1015C400021B0001010280320904000000FE010236
:1015D4000209210D102700040101000010034B0033
:1015E4006F007300610067006900000000011200D1
:1015F4006511002000021B00771100200003000089
:1016040018110020010300009411002002030000BF
:101614000C120020EE0300001C110020000F1D001E
:10162400EC110020010F0E002E110020000000001C
:1016340000000000050F1D00011810050038B60851
:1016440034A909A0478BFDA0768815B66500010270
:10165400010000003C0354006F006D007500200081
:1016640042006F006F0074006C006F006100640042
:101674006500720020002800300029002000760058
:1016840032002E0030002D0072006300350000008F
:0C1694001C1400200200000001000000F7
:040000030000034BAB
:00000001FF
